:100000000C9444020C945D250C9436250C944026E7
:100010000C9440260C9440260C946C020C943824CA
:100020000C946C020C946C020C946C020C9484255D
:100030000C946C020C946C020C946C020C946C0288
:100040000C94EC240C946C020C94BA240C9494241C
:100050000C946C020C946C020C946C020C946C0268
:100060000C94B8260C946C024572726F7220696E03
:10007000205350495F4441544120636F6D6D616E60
:10008000643A20656D707479206D6573736167657E
:10009000004572726F7220656E61626C696E6720D6
:1000A000535049206D6F6465005350492E62656757
:1000B000696E2829005350495F424547494E3A200E
:1000C0004F6E6C79206368616E6E656C20302073B2
:1000D0007570706F72746564005350495F44455683
:1000E0004943455F434F4E4649473A204F6E6C792E
:1000F000206368616E6E656C203020737570706F60
:10010000727465643A20005350495F444556494330
:10011000455F434F4E4649473A204F6E6C79203831
:100120002062697420776F72647320737570706FCA
:1001300072746564005350495F4445564943455FB6
:10014000434F4E4649473A204D6178206E756D62A7
:100150006572206F662064657669636573206578D3
:10016000636565646564004E6F7420656E6F7567C6
:1001700068206461746120696E205350495F444572
:10018000564943455F434F4E464947206D6573735B
:1001900061676500556E6B6E6F776E205350492016
:1001A000636F6D6D616E643A20005350495F545225
:1001B000414E534645523A2053656E64206275663F
:1001C000666572206E6F74206C6172676520656E63
:1001D0006F756768005350495F5452414E5346450E
:1001E000523A20556E6B6E6F776E20646576696348
:1001F000654964207370656369666965643A2000C7
:100200004E6F7420656E6F7567682064617461203D
:10021000696E20535049206D6573736167650053A3
:100220005049206E6F7420656E61626C65642E00AB
:100230005350492E656E642829004572726F7220F2
:10024000696E2044485420636F6D6D616E643A207E
:100250004E6F7420656E6F75676820706172616D96
:100260006574657273004572726F7220696E2053F7
:100270006F6E617220636F6D6D616E643A204E6FB8
:100280007420656E6F75676820706172616D65744A
:10029000657273004572726F7220696E2042557AE2
:1002A0007A657220636F6D6D616E643A204E6F7473
:1002B00020656E6F75676820706172616D65746529
:1002C000727320666F722062757A7A657220746F1D
:1002D0006E65004572726F7220696E2042757A7A7F
:1002E000657220636F6D6D616E643A204E6F74208D
:1002F000656E6F75676820706172616D6574657297
:100300007300556E6B6E6F776E2070696E206D6F27
:10031000646500556E68616E646C65642073797302
:10032000657820636F6D6D616E640043616E6E6F02
:1003300074206368616E67652070696E206E756DEC
:10034000626572207768696C65206163746976659F
:1003500000496E76616C69642070696E206E756DFF
:1003600062657220666F72206672657175656E6374
:100370007920636F6D6D616E64004932433A205499
:100380006F6F206D616E792062797465732072657C
:1003900063656976656400746F6F206D616E7920A6
:1003A000717565726965730031302D626974206101
:1003B000646472657373696E67206E6F7420737501
:1003C00070706F727465640053706563696679203C
:1003D00073657269616C20525820616E64205458B4
:1003E0002070696E730000000000240027002A00BE
:1003F00000000008000201000003040700000000E4
:100400000000000002426F6F74696E6720646576B9
:100410006963652E205374616E642062792E2E2EDE
:100420000044697363617264696E6720696E7075F8
:1004300074206D6573736167652C206F7574206F10
:100440006620627566666572000000000023002663
:1004500000290000000000250028002B00040404EF
:10046000040404040402020202020203030303035D
:10047000030102040810204080010204081020013A
:100480000204081020003C2811241FBECFEFD8E042
:10049000DEBFCDBF12E0A0E0B1E0E0E9F1E602C0CE
:1004A00005900D92A835B107D9F726E0A8E5B2E08E
:1004B00001C01D92A636B207E1F712E0C4E4D2E013
:1004C00004C02197FE010E94C72EC334D107C9F78B
:1004D0000E94E5290C94C6300C940000282F30E0CF
:1004E000245B3B4FF901E45BFF4F90819F3769F03C
:1004F000205A3F4FD9011C926083E091C804F091CB
:10050000C904309711F070E009940895A0914C044B
:10051000B0914D04ED91FC9111970190F081E02D87
:10052000682FCD01099480914C0490914D04DC0119
:10053000ED91FC910190F081E02D60EF0994CF9353
:10054000DF93CCE4D4E088819981DC01ED91FC91CA
:100550000190F081E02D67EF099588819981DC0198
:10056000ED91FC910680F781E02DDF91CF91099408
:100570000F931F93CF93DF93EC010CE414E0D801A9
:100580008D919C916C2F6F77DC01ED91FC91019026
:10059000F081E02D0995F80180819181CC0FCD2F5C
:1005A000CC1FDD0B6C2F6F77DC01ED91FC9101907E
:1005B000F081E02DDF91CF911F910F910994CF929F
:1005C000DF92EF92FF926B017C01862F8F770E9462
:1005D0008602D701C60127E0B695A795979587951E
:1005E0002A95D1F78F770E948602D701C6013EE097
:1005F000B695A795979587953A95D1F78F770E94ED
:100600008602D701C60145E1B695A79597958795CE
:100610004A95D1F78F770E948602D701C6015CE127
:10062000B695A795979587955A95D1F7FF90EF9036
:10063000DF90CF900C948602CF93DF93CCE4D4E08C
:1006400088819981DC01ED91FC910190F081E02D90
:1006500069EF099588819981DC01ED91FC91019008
:10066000F081E02D62E0099588819981DC01ED91AE
:10067000FC910190F081E02D66E0DF91CF9109942B
:10068000CF92DF92EF92FF92CF93DF93EC016A015A
:100690007B01E889F98982E08083C11481EED80664
:1006A000E104F104A1F060E079E08DE390E0A701BE
:1006B00096010E94CE2D21503109410951095695CC
:1006C000479537952795211580E1380798F0E889F7
:1006D000F989108260E874E88EE190E0A701960144
:1006E0000E94CE2D21503109410951095695479557
:1006F00037952795EC85FD853083EE85FF85208332
:10070000188EEC89FD8986E08083EA89FB898081E7
:1007100080618083EA89FB89808188608083EA899F
:10072000FB89808180688083EA89FB8980818F7D55
:100730008083DF91CF91FF90EF90DF90CF9008956D
:10074000E0913505E53158F421E02E0F2093350571
:10075000F0E0EE0FFF1FE55FFA4F9183808308956D
:1007600081E08093C00410925204109253041092BE
:100770005404E5E5F4E0119284E0E539F807D9F78F
:10078000109295041092970410929604E091CC0474
:10079000F091CD04309709F009951092C0040895A6
:1007A000CF93DF93EB01A0914C04B0914D048F7077
:1007B000682F606EED91FC9111970190F081E02D12
:1007C000CD010995CE01DF91CF910C94B802CF9362
:1007D000DF9300D01F92CDB7DEB78F708069898319
:1007E000862F8F778A83660F672F661F770B6B8341
:1007F00080914C0490914D04DC01ED91FC910280BC
:10080000F381E02D43E050E0BE016F5F7F4F09951B
:100810000F900F900F90DF91CF910895AF92BF92FC
:10082000CF92DF92EF92FF920F931F93CF93DF93BC
:100830006C017B018B01040F151FEB015E01AE18EB
:10084000BF08C017D10759F06991D601ED91FC910D
:100850000190F081E02DC6010995892B79F7C5013A
:10086000DF91CF911F910F91FF90EF90DF90CF908C
:10087000BF90AF900895FC01538D448D252F30E03B
:10088000842F90E0821B930B541710F0CF9608959D
:1008900001970895FC01918D828D981761F0A28DCA
:1008A000AE0FBF2FB11D5D968C91928D9F5F9F7390
:1008B000928F90E008958FEF9FEF0895FC01918D46
:1008C000828D981731F0828DE80FF11D858D90E0B3
:1008D00008958FEF9FEF0895FC01918D228D892F50
:1008E00090E0805C9F4F821B91098F739927089538
:1008F00089E993E00E946C0421E0892B09F420E04F
:10090000822F089580E090E0892B29F00E947804DE
:1009100081110C9400000895FC01A48DA80FB92F3B
:10092000B11DA35ABF4F2C91848D90E001968F7317
:100930009927848FA689B7892C93A089B1898C9136
:10094000837080648C93938D848D981306C0028885
:10095000F389E02D80818F7D80830895EF92FF924F
:100960000F931F93CF93DF93EC0181E0888F9B8DD2
:100970008C8D98131AC0E889F989808185FF15C08C
:100980009FB7F894EE89FF896083E889F9898081AF
:100990008370806480839FBF81E090E0DF91CF917E
:1009A0001F910F91FF90EF900895F62E0B8D10E0A0
:1009B0000F5F1F4F0F731127E02E8C8D8E110CC00F
:1009C0000FB607FCFACFE889F989808185FFF5CF5A
:1009D000CE010E948C04F1CFEB8DEC0FFD2FF11DA9
:1009E000E35AFF4FF0829FB7F8940B8FEA89FB8997
:1009F00080818062CFCF0F931F93CF93DF938C01C1
:100A0000D0E0C0E0F801EC0FFD1F6491662341F0D7
:100A100089E993E00E94AE04892B11F02196F2CF70
:100A2000CE01DF91CF911F910F910895CF93DF9366
:100A3000EC01888D8823B9F0AA89BB89E889F989F6
:100A40008C9185FD03C0808186FD0DC00FB607FC2B
:100A5000F7CF8C9185FFF2CF808185FFEDCFCE015E
:100A60000E948C04E9CFDF91CF910895833081F00B
:100A700028F4813099F08230A9F008958730A9F0E8
:100A80008830C9F08430B1F4809180008F7D03C03C
:100A9000809180008F7780938000089584B58F7750
:100AA00084BD089584B58F7DFBCF8091B0008F7792
:100AB0008093B00008958091B0008F7DF9CFCF93DF
:100AC000DF93282F30E0F901E051FC4F8491F901C8
:100AD000EF58FB4FD491F901E35AFB4FC491CC235B
:100AE000A1F081110E943605EC2FF0E0EE0FFF1F00
:100AF000E75BFB4FA591B491EC91ED2381E090E091
:100B000009F480E0DF91CF91089580E090E0FACF82
:100B10001F93CF93DF93282F30E0F901E051FC4F72
:100B20008491F901EF58FB4FD491F901E35AFB4F3F
:100B3000C491CC23A9F0162F81110E943605EC2F09
:100B4000F0E0EE0FFF1FED5AFB4FA591B4918FB768
:100B5000F894EC91111108C0D095DE23DC938FBF7F
:100B6000DF91CF911F910895DE2BF8CF9091040172
:100B700089130BC0E4E0F4E0E4919FEF909304014B
:100B8000E13049F028F0E23061F060E00C94880533
:100B900010926E00FACF90916F009D7F90936F003E
:100BA000F4CF909170009D7F9093700091E09093AE
:100BB000B0009091B100987F94609093B100109232
:100BC000B300E3CFCF93DF9390E0FC01EF58FB4FEE
:100BD0002491835A9B4FFC0184918823C9F090E0B3
:100BE000880F991FFC01EA51FC4FA591B491FC01BB
:100BF000ED5AFB4FC591D49161110DC09FB7F89488
:100C00008C91209582238C938881282328839FBFF1
:100C1000DF91CF910895623051F49FB7F8943C91E1
:100C2000822F809583238C93E8812E2BEFCF8FB773
:100C3000F894EC912E2B2C938FBFEACF8E3008F0D6
:100C40008E508770806480937C0080917A008064ED
:100C500080937A0080917A0086FDFCCF80917800A5
:100C60009091790008953FB7F89480913E03909158
:100C70003F03A0914003B091410326B5A89B05C056
:100C80002F3F19F00196A11DB11D3FBFBA2FA92F0B
:100C9000982F8827BC01CD01620F711D811D911D08
:100CA00042E0660F771F881F991F4A95D1F7089574
:100CB0008F929F92AF92BF92CF92DF92EF92FF926C
:100CC0006B017C010E9433064B015C01C114D1040D
:100CD000E104F104B9F00E943306681979098A0920
:100CE0009B09683E73408105910580F321E0C21A9B
:100CF000D108E108F10888EE880E83E0981EA11C57
:100D0000B11CE4CFFF90EF90DF90CF90BF90AF90F9
:100D10009F908F9008952FB7F89460913A03709147
:100D20003B0380913C0390913D032FBF08958F9228
:100D30009F92AF92BF92CF92DF92EF92FF92CF93AA
:100D4000C82F0E948B064B015C01F894C0904204AE
:100D5000D0904304E0904404F090450478940E94BD
:100D600093028DE70E94860282E00E9486028C2F09
:100D70000E948602C501B4010E94DF02C701B601CC
:100D80000E94DF02CF91FF90EF90DF90CF90BF9055
:100D9000AF909F908F900C949F02E82FF0E08823F3
:100DA00059F0813059F0EE0FFF1FE050FF4F80EEF9
:100DB00096E0918380830895E898F5CFE998F3CF82
:100DC0000895DF92EF92FF920F931F93CF93DF93DB
:100DD000EC01D62E7A01890188818C3008F067C039
:100DE00061E08D2D0E94E2058881282F30E0F90115
:100DF000EE0FFF1FE20FF31FEB5EFC4F9D2D9F7365
:100E00006081607C692B608320E232E02E193F090B
:100E100037FF02C02D5F3F4F3595279535952795B4
:100E2000298320E639E0201B310B37FF02C02D5FFC
:100E30003F4F35952795359527952A832CE0622FCE
:100E40000E94932E829FB001112430E020E0AB017C
:100E5000420F531FFA01EE0FFF1FE40FF51FEB5E69
:100E6000FC4F908196FD16C02F5F3F4F2C3031050F
:100E700071F781110FC01092800082E08093810091
:100E80001092850010928400B19A80916F00826068
:100E900080936F00E8818E2F90E0FC01EE0FFF1F22
:100EA000E80FF91FEB5EFC4F8081806480838881AE
:100EB000DF91CF911F910F91FF90EF90DF900895F8
:100EC0000F931F93CF93DF93EC018A81882321F046
:100ED00061E088810E94E20560E088810E948805C7
:100EE00083E090E00197F1F761E088810E94880536
:100EF00083E290E00197F1F760E088810E94880525
:100F00008A81882321F060E088810E94E2050E94A6
:100F100033066B837C838D839E8389810E945F056A
:100F2000892B99F40E9433060B811C812D813E810F
:100F3000601B710B820B930B0F81188529853A85F5
:100F4000061717072807390740F70E9433066B83F7
:100F50007C838D839E8389810E945F05892B99F014
:100F60000E9433060B811C812D813E81601B710B19
:100F7000820B930B0F81188529853A850617170771
:100F80002807390740F70E9433062B813C81CB01AB
:100F9000821B930BDF91CF911F910F910895CF92F8
:100FA000DF92EF92FF92CF93DF93DC011796CC9103
:100FB0001797D0E06111DC2F18962C91189730E02C
:100FC000220F331F275B3B4F50E040E0F901859132
:100FD0009491FC01F080BA0190E080E0EF2DEC23C9
:100FE000ED1310C04F5F5F4F1D96CD90DD90ED90DB
:100FF000FC9050976C157D058E059F0538F36FEFBB
:101000007FEFCB01DF91CF91FF90EF90DF90CF90FA
:1010100008958F929F92AF92BF92CF92DF92EF92FC
:10102000FF920F931F93CF93DF93CDB7DEB7C054DA
:10103000D1400FB6F894DEBF0FBECDBF8C010E9429
:101040008B06F801C184D284E384F4849B01AC0153
:101050002C193D094E095F0969017A0130EDC3166B
:1010600037E0D306E104F104A8F48189C05CDE4FC7
:101070000FB6F894DEBF0FBECDBFDF91CF911F91A9
:101080000F91FF90EF90DF90CF90BF90AF909F9027
:101090008F90089561877287838794871482138263
:1010A00012821182108262E085810E94E20561E075
:1010B00070E080E090E00E94580661E0F8018581D0
:1010C0000E94E20560E0F80185810E948805F80130
:1010D00086818551823028F58BE291E10197F1F705
:1010E00062E0F80185810E94E205F801828990E0C2
:1010F0008230910538F0880F991F880F991F059746
:101100000197F1F7F89460E0C8010E94CF076F3FA4
:101110007F4F8F4F9F4F61F4F801118A789480E0E0
:10112000A5CF64E170E080E090E00E945806D8CF3F
:1011300061E0C8010E94CF076F3F7F4F8F4F9F4FE5
:1011400059F39E012F5F3F4F79015E013FEBA31AD8
:101150003EEFB30A670160E0C8010E94CF07F601C5
:10116000608371838283938361E0C8010E94CF070B
:10117000F6016483758386839783F8E0CF0ED11CD4
:10118000CA14DB0441F7789430E020E0F701808056
:101190009180A280B3804481558166817781FFEF81
:1011A0008F169F06AF06BF0631F04F3F8FEF5807EF
:1011B0006807780719F4F801118AB1CFF90183E0C3
:1011C000F595E7958A95E1F7E00FF11F8081880F8B
:1011D00084169506A606B706F0F080832F5F3F4F72
:1011E000F8E0EF0EF11C2832310581F6F801448158
:1011F00020818181280F3327331F8281280F311DE1
:101200008381820F932F911D99274817190699F60C
:1012100081E0818B2BCF8160E0CF20911103309151
:1012200012032817390771F49091100380910F036E
:10123000981741F0E0911003F0E0E153FD4F8081F9
:1012400090E008958FEF9FEF08950895EF92FF9239
:101250000F931F93CF93DF93DC015C96ED90FC908E
:101260005D97E114F10479F481E090E013969C938A
:101270008E93129790E080E0DF91CF911F910F91B4
:10128000FF90EF9008955196ED91FC9152975096F2
:101290008C915097982F90950FB75E962C915E97F2
:1012A000122F127021FD6095F8942081112319F1FD
:1012B000282B2083E7012197F1F728E0462F50E003
:1012C000308160FF1AC0382B3083E7012197F1F796
:1012D000BA0175956795215089F7112381F08081B6
:1012E000892380830FBF5C968D919C910197F1F7C4
:1012F00081E090E0C1CF2923DCCF3923E5CF908175
:10130000892BEFCF20911103309112032817390751
:1013100061F480910F032091100390E0805C9F4F57
:10132000821B91098F739927089590E080E00895BA
:10133000209111033091120328173907B9F49091C5
:10134000100380910F03981789F0E0911003F0E0EB
:10135000E153FD4F80812091100330E02F5F3F4F1C
:101360002F7333272093100390E008958FEF9FEFA2
:101370000895E0911103F0911203E817F90769F459
:10138000A389B4899C918589809589238C93109237
:1013900012031092110381E0089580E00895CF9325
:1013A000DF93EC018A8D9B8D892B01F180911103D4
:1013B000909112038C179D07C9F0009711F00E94BD
:1013C000B9098E8D8E7F8E8F10920F0310921003AD
:1013D000D0931203C0931103EB89FC8980819D890E
:1013E000892B808381E0DF91CF91089580E0FBCF4E
:1013F0002091AA02260F3327331F21323105ECF446
:1014000020916F03FC0190E080E0243069F082E0DD
:101410000895A091AA022191AC0148575D4FA40FF5
:10142000B52FB11D2C930196861798F38091AA02CF
:10143000680F6093AA0280E0089581E00895ECEBC4
:10144000F0E080818A7B808360E082E10E948805F1
:1014500060E083E10C94880510926F0381E0809333
:101460006E031092490361E082E10E94880561E009
:1014700083E10E948805E9EBF0E080818E7F808324
:1014800080818D7F808388E48093B80085E4809399
:10149000BC000895CF93DF9391E090938702882357
:1014A00061F0C091B800D091BA000E941F0A0E945A
:1014B0002C0AD093BA00C093B800DF91CF91089561
:1014C0008F929F92AF92BF92CF92DF92EF92FF9254
:1014D0000F931F93CF93DF93D0919803D13208F0ED
:1014E000D7C0182FC09197030E9433066B017C016F
:1014F00080916F0381116BC082E080936F03109322
:101500006E038FEF80936D0310926C03D0936B0387
:10151000A7E7B3E0EBE4F3E080E0D81391C01092CA
:101520004A0380914A03CC0FC82BC0934A03809191
:101530004903813009F088C0109249030E943306A4
:101540006B017C0180914A038093BB008091710301
:1015500090917203A0917303B0917403892B8A2B2D
:101560008B2BA1F00E94330600917103109172033E
:1015700020917303309174036C197D098E099F09C2
:10158000061717072807390708F442C08091BC00E6
:1015900083FDD8CF85EC8093BC000E9433066B019D
:1015A0007C0180916F03823009F450C080916D03FB
:1015B0008F3F09F46FC080916D03803209F46CC0D5
:1015C00080916D03803309F469C084E026C0809166
:1015D000710390917203A0917303B0917403892BEE
:1015E0008A2B8B2B09F484CF0E94330680907103E1
:1015F00090907203A0907303B09074036C197D09EE
:101600008E099F0986169706A806B90608F070CFBE
:10161000809170030E944A0A85E01092760310922E
:10162000980310927503DF91CF911F910F91FF9056
:10163000EF90DF90CF90BF90AF909F908F900895E4
:101640009D9191938F5F69CF85EEA5CF80917103B6
:1016500090917203A0917303B0917403892B8A2B2C
:101660008B2B09F49ECF0E943306009171031091D9
:10167000720320917303309174036C197D098E09F4
:101680009F09061717072807390708F08ACFC0CF28
:1016900081E0C3CF80E0C1CF82E0BFCF83E0BDCF88
:1016A00008950895E091860280918502E81730F44C
:1016B000F0E0EB59FD4F808190E008958FEF9FEFB0
:1016C000089590918602809185022FEF3FEF981741
:1016D00048F4E92FF0E0EB59FD4F208130E09F5FA7
:1016E00090938602C90108958091850290918602A7
:1016F000891B990B0895CF92DF92EF92FF920F937F
:101700001F93CF93DF937C01CB018A012091750356
:10171000222389F0EB016B01C40ED51ECC15DD052B
:1017200069F06991D701ED91FC910190F081E02D74
:10173000C7010995F3CF642F0E94F809C801DF9112
:10174000CF911F910F91FF90EF90DF90CF90089570
:10175000CF93DF931F92CDB7DEB7698320917503D6
:101760002223F9F020919803203258F021E030E054
:10177000FC013383228390E080E00F90DF91CF91D2
:10178000089580917603E82FF0E0E958FC4F9981A5
:1017900090838F5F809376038093980381E090E03D
:1017A000ECCF61E0CE0101960E94F809F7CF90E0FE
:1017B00080E008950895693091F038F489589F4F7A
:1017C000683049F090E080E008956A3059F083581D
:1017D0009F4F6B30B9F7FC01808191810895875844
:1017E0009F4FF9CF85589F4FF6CF2F923F924F9240
:1017F0005F926F927F928F929F92AF92BF92CF92A1
:10180000DF92EF92FF920F931F93CF93DF9300D05D
:1018100000D0CDB7DEB7DC0192962C9127FDFBC03E
:101820009C838B830E948B064B015C011A82BA81D8
:101830008B2F90E0EB81FC8122A1022E000C330B58
:10184000281739070CF4E7C08E0F9F1FDC01129692
:10185000BC91B9836B2FCF010E94DB0B7C01892BDC
:1018600009F4C2C0E981E83040F080911103909101
:101870001203E816F90609F0B7C0F981CF2ED12C72
:10188000F6013596EE0FFF1F2B813C81E20FF31F0F
:1018900000811181D701ED91FC910084F185E02D4B
:1018A000C7010995181619060CF09EC0EB81FC8142
:1018B000EC0DFD1DED5AFF4FA0813601660C771C23
:1018C000A11149C080EF0E94860280E60E94860234
:1018D000898180640E9486020115110559F0D701A3
:1018E000ED91FC910084F185E02DC7010995081761
:1018F00019074CF0D701ED91FC910084F185E02DA2
:10190000C70109958C01EB81FC816E0E7F1EF301EE
:10191000E15AFF4F80819181801B910B97FD74C02C
:1019200091838083101611060CF071C0D701ED91E0
:10193000FC910284F385E02DC7010995D82E8F779D
:101940000E9486028D2D881F8827881F0E9486028C
:1019500001501109E7CFEB81FC81E60DF71DE15A3B
:10196000FF4F2081318112161306F4F4F601EE0FB9
:10197000FF1FEE0FFF1F4B815C81E40FF51F23A0BB
:1019800034A045A056A0B501A40142195309640929
:1019900075091A012B014A2F50E070E060E024160F
:1019A00035064606570650F50115110509F5803331
:1019B000910524F528173907BCF420E0CC0CDD1C78
:1019C000CC0CDD1CEB81FC81EC0DFD1D83A294A2EF
:1019D000A5A2B6A2EB81FC81E60DF71DE15AFF4FEF
:1019E0009183808321116ECFBA81BF5FBA831FCFED
:1019F00010161106FCF680179107E4F22817390734
:101A00000CF060CF21E0DACF118210828BCF87EF0C
:101A10000E948602E9CF0F900F900F900F90DF91F8
:101A2000CF911F910F91FF90EF90DF90CF90BF90DB
:101A3000AF909F908F907F906F905F904F903F906E
:101A40002F900895089581E04A30510509F080E013
:101A500008950895FC01E65BFF4F2081222331F0B9
:101A60001082855B9F4F2FEFFC0120830895625108
:101A7000623030F486E00E94860281E00C94860297
:101A800008959C018EEE860F8230B0F446305105E9
:101A9000A9F0D901A65BBF4F8C91882371F0E62F86
:101AA000F0E0E856FB4F8081863031F41C92255BD4
:101AB0003F4F8FEFF901808380E0089581E0089522
:101AC0000895CF93DF93FC012281338137FD0CC051
:101AD000EC012230310559F081E02330310541F02D
:101AE0008FEF9FEF9B838A83DF91CF91089580E0F2
:101AF0000E94CD06F5CF90E080E0623031F08FEFAC
:101B00009FEF633011F481E090E06250623140F465
:101B1000019631F080E10E94860280E00C948602FA
:101B20000895CF93DF9330E020E0623031F02FEF63
:101B30003FEF633011F421E030E07EEF760F723139
:101B4000A0F42F3F320789F04031510581F0FC01AC
:101B5000428153816417150641F4EC01822F0E94E3
:101B6000CD068FEF9FEF9B838A8380E001C081E0E9
:101B7000DF91CF910895CF92DF92EF92FF92CF93B2
:101B8000DF93EC010E948B066B01770FEE08FF08D4
:101B900088859985AA85BB85C816D906EA06FB06FD
:101BA0006CF04C815D816E817F81840F951FA61F33
:101BB000B71F8C159D05AE05BF054CF48A819B812E
:101BC00097FF0E949706C886D986EA86FB86DF9132
:101BD000CF91FF90EF90DF90CF90089580914204D5
:101BE00090914304A0914404B09145040196A11D35
:101BF000B11D8093420490934304A0934404B09396
:101C000045040895CF93DF93EC010E948B066E8309
:101C10007F838887998783E190E09B878A87DF911C
:101C2000CF9108956A37C1F44230B0F0F901418193
:101C3000F0E84F9FA0011124F9012081240F352FD6
:101C4000311D2115310529F0FC013387228781E000
:101C5000089521E030E0F8CF80E0089580E0089515
:101C600008950F931F93CF93DF938C01D62FC0E07D
:101C7000D8019C968C91C81798F4EC2FF0E031961F
:101C8000EE0FFF1FE00FF11F80819181DC01ED91CC
:101C9000FC910084F185E02D6D2F0995CF5FE8CF91
:101CA000DF91CF911F910F9108950F931F93CF93C1
:101CB0008C01C0E0D8019C968C91C81790F4EC2F51
:101CC000F0E03196EE0FFF1FE00FF11F8081918150
:101CD000DC01ED91FC910680F781E02D0995CF5F45
:101CE000E9CFCF911F910F910895CF93C0E082EF7C
:101CF0008C0F62E0863028F08EEF8C0F823120F45A
:101D000061E08C2F0E946E02CF5FC43181F789E0C1
:101D100095E0CF910C94550EDF92EF92FF920F93C6
:101D20001F93CF93DF93EC01E62ED42E89018BE62F
:101D30006817D1F1ADE66A1364C0442309F47CC08E
:101D4000F901C081C43108F077C080EF0E9486029B
:101D50008EE60E9486028C2F0E948602D0E0C45B31
:101D6000DB4FFE01E45BFF4F80810E948602C05A78
:101D7000DF4FC8818C2F8F770E9486028C2F90E0D6
:101D8000C7FF06C0880F892F881F990B0E94860203
:101D900087EF0E94860281E0DF91CF911F910F9122
:101DA000FF90EF90DF90089580EF0E9486028CE60E
:101DB0000E94860208E914E0F12CD8018D918D0172
:101DC0008F37B9F0E12C8CA5E81698F4EE2DF0E0F1
:101DD0003196EE0FFF1FEC0FFD1F80819181DC011A
:101DE000ED91FC910190F081E02D6F2D0995E39428
:101DF000EACF8FE70E948602F394B4E1FB12DDCFB5
:101E0000C7CFF12C8CA5F816B8F4EF2DF0E0319681
:101E1000EE0FFF1FEC0FFD1F80819181DC01ED9122
:101E2000FC910480F581E02D98014D2D6E2D0995D2
:101E30008111B2CFF394E6CF80E0AECFDF92EF9284
:101E4000FF920F931F93CF93DF93EC01D62E8A015D
:101E5000F12CE12C8CA5F816A8F4EF2DF0E03196CA
:101E6000EE0FFF1FEC0FFD1F80819181DC01ED91D2
:101E7000FC910280F381E02DA8016D2D0995E82ADF
:101E8000F394E8CF8E2DDF91CF911F910F91FF90AA
:101E9000EF90DF90089508956250623130F481E050
:101EA0000E94860281E00C9486020895CF938EEF03
:101EB000860F8231B0F44130510599F4E62FF0E0FD
:101EC000E856FB4F80818F3761F0C62F60E08C2F82
:101ED0000E94880561E08C2F0E94E20581E0CF918D
:101EE000089580E0FCCF80E008951F93CF93DF93A7
:101EF0009EEF980F923180F4C82FD0E0C45BDB4F87
:101F0000FE01E45BFF4F9081913031F4162F0E9467
:101F10008805C05ADF4F1883DF91CF911F91089534
:101F2000AF92BF92CF92DF92EF92FF920F931F93E7
:101F3000CF93DF93833008F04BC091E0980F990F57
:101F4000990F990FB92E953110F024E1B22EC62FBA
:101F5000E82E9850092F10E0D0E0FF24F394802F52
:101F60000B1558F59EEF900F9231C8F4A801445B11
:101F70005B4FFA01E45BFF4F2081223080F49F2DFC
:101F80009C23AA24A394911101C0A12CBA01605AE8
:101F90007F4F6B01213039F4DF29F601A082FF0C5D
:101FA0000F5F1F4FDCCF9923C1F3FB01908191306C
:101FB000A1F362E00E94E205F0CFE11014C0F894B2
:101FC0008BB1682F6C276C7F6D2368276BB9789471
:101FD000DF91CF911F910F91FF90EF90DF90CF9005
:101FE000BF90AF900895F1E0EF121AC0CD23F8949E
:101FF00095B18D2F8F73809589239C2F9F73892B8B
:1020000085B988B16D2F6295669566956370609508
:102010006823C295C695C695C370C62BC8B9D7CFDD
:102020006D2F6F70F89498B1862F880F880F809568
:1020300089236C23660F660F682B68B9C8CF089593
:10204000FC01128210861582138211861682148278
:102050001286178208956250623160F480E00E9417
:10206000860281E00E9486028BE00E94860281E067
:102070000C9486020895CF932EEF260F223188F517
:10208000E62FE695E695E695E80FF92FF11D808598
:10209000962F977021E030E001C0220F9A95EAF761
:1020A0004115510519F04B305105B9F4C62F282BB5
:1020B0002087452B31F460E08C2F0E94E20581E0FF
:1020C0000AC062E08C2F0E94E205EC2FF0E0E4559C
:1020D000FB4F81E08083CF910895209528232087AE
:1020E000EECF80E0F8CF1F93CF93DF936623E1F12B
:1020F000EC018A81882369F019B11C7F8885182337
:102100008D81181731F0612F70E080E00E94E703A5
:102110001D838B81882399F0298513B186B11F73A4
:1021200030E4839FC0011124182B12238E811817CD
:1021300031F0612F70E081E00E94E7031E838C8103
:10214000882391F086B190E0959587959595879530
:102150008F701A8518238F81181731F0612F70E066
:1021600082E00E94E7031F83DF91CF911F910895C2
:102170001F93CF93DF938330B0F4C091D504D091F7
:10218000D604C80FD11D6A83672B69F04885811179
:102190000EC029B12C7F2423142F1223612F70E04D
:1021A0000E94E7031D83DF91CF911F910895813035
:1021B00049F423B166B12F7390E4699FB0011124F3
:1021C000262BE9CF96B1292F30E035952795359507
:1021D00027952F70E0CF633039F08BEF860F823078
:1021E00018F06950633030F483E00E94860288E082
:1021F0000C9486020895FF920F931F93CF93DF9361
:10220000F9016F3609F077C0423008F474C0F080ED
:10221000C181D0E0423091F0828120E8829FC001EC
:102220001124C82BD92B433049F0838190E090E4EE
:10223000899F902D88271124C82BD92B0F2D10E0B2
:10224000F801E856FB4F80818250823098F561E0BA
:102250008F2D0E94E205209729F460E08F2D0E94C7
:10226000880528C0CF3FD10511F461E0F7CFF80110
:10227000E051FC4FE491E33021F140F4E130B1F062
:10228000E230D1F0C038D10584F7E7CFE73019F15B
:10229000E83049F1E430B1F78091800080628093AA
:1022A0008000D0938B00C0938A0004C084B58068FE
:1022B00084BDC7BD81E020C084B5806284BDC8BD37
:1022C000F9CF80918000806880938000D09389004E
:1022D000C0938800EFCF8091B00080688093B000F9
:1022E000C093B300E7CF8091B00080628093B000CC
:1022F000C093B400DFCF80E0DF91CF911F910F91A9
:10230000FF9008950895EF92FF920F931F93CF933C
:10231000662319F17C010CE414E0C2EFC630C0F46E
:10232000F801E45BFF4F8081823091F4F7018281F4
:1023300093810C2E02C0959587950A94E2F780FF51
:1023400007C08C2F0E941E06BC018C2F0E94D00358
:10235000CF5F0F5F1F4FC63009F7CF911F910F91CD
:10236000FF90EF900895FC01138212820895CF939D
:1023700080E06936A1F480EF0E9486028AE60E941E
:102380008602C2EF8C2FC63008F08FE70E948602CB
:10239000CF5FC630B9F787EF0E94860281E0CF9108
:1023A00008956E50663030F482E00E9486028AE022
:1023B0000C9486020895CF938630B0F4E0914804DF
:1023C000F09149044281538121E030E0082E02C09F
:1023D000220F331F0A94E2F7672B41F420953095C2
:1023E0002423352333832283CF910895242B352B47
:1023F000338322839091C0049111F6CFC82F0E949D
:102400001E06BC018C2FCF910C94D0030895089523
:1024100008950895089562506C3030F484E00E946D
:1024200086028EE00C948602089581E00895625041
:10243000623130F48FE00E94860280E40C948602C0
:1024400008956A50643030F48CE00E94860281E086
:102450000C94860208950895FC0101900020E9F78C
:102460003197AF01481B590BBC0189E993E00C94EB
:102470000E040F931F93CF93DF930E9493028091DA
:102480004C0490914D04DC01ED91FC910190F081A0
:10249000E02D69E7099580914C0490914D04DC0191
:1024A000ED91FC910190F081E02D6091500409952F
:1024B00080914C0490914D04DC01ED91FC910190D0
:1024C000F081E02D609151040995A0914E04B091E6
:1024D0004F04ED0109900020E9F72197CA1BDB0B9F
:1024E00010E000E0C017D10779F0E0914E04F091C0
:1024F0004F04E00FF11F8081082E000C990B0E9401
:10250000B8020F5F1F4FEECFDF91CF911F910F9158
:102510000C949F020F931F93CF93DF9380915504E8
:102520008137A9F0893709F053C08091500488237E
:1025300009F45EC080914C0490914D04892B09F4FC
:1025400057C0DF91CF911F910F910C9439120091D8
:10255000CE041091CF040115110509F449C0209152
:10256000960430919704C901019797FDC90195958B
:102570008795482F8823E1F1ACE4B4E0C5E5D4E0C9
:1025800030E01A965C911A975993BE016150710917
:102590001B962C911B97279522272795250FFB012A
:1025A00020833F5F1296341760F39927DC01A45B08
:1025B000BB4F18968C911897882311F019961C928E
:1025C00085E594E0F801DF91CF911F910F91099477
:1025D000E091D004F091D104309751F060919604CD
:1025E000615046E554E0DF91CF911F910F9109941E
:1025F000DF91CF911F910F910895EF92FF920F936A
:102600001F93CF93DF938C010E94422C7C01809119
:10261000C104811107C0C8010E94FB0481E492E05B
:102620000E942C120E94930280914C0490914D04C0
:10263000DC01ED91FC910190F081E02D61E70995BD
:10264000D0E0C0E0CE15DF054CF4F801EC0FFD1F23
:10265000849190E00E94B8022196F4CFDF91CF914F
:102660001F910F91FF90EF900C949F028F929F9279
:10267000AF92BF92EF92FF920F931F93CF93DF938E
:102680006D3709F05CC0423060F481E0DF91CF919A
:102690001F910F91FF90EF90BF90AF909F908F9000
:1026A0000895E901F42E8C018881811118C02981D7
:1026B000F801828193812817190621F097FD0FC038
:1026C0002F3769F482309105E1F0039719F481E026
:1026D0000E94CD068FEF9FEFF80193838283F4E091
:1026E000FF1598F68881E98022E0E21651F193E027
:1026F000E91639F1813049F681E593E00E94FD1237
:10270000C4CF80E0E5CFE3E0EE125DC02EEE3DE009
:10271000309303012093020120916900237F880FE9
:10272000991F880F991F822B80936900E99A4BC0EB
:102730008C179D0709F452C08BE293E0DFCF80E055
:10274000A5CF813009F0A1CFFA808C81E0E88E9F7F
:10275000C00111242B81822B4C01092E000CAA08E8
:10276000BB08892B59F00E948B06F801608771879E
:102770008287938784829582A682B782F8018281BC
:102780009381CE2DD0E08F3F980791F6EEEFEF0DBD
:1027900090E080E0E43038F4F0E0E55FFE4F8081C7
:1027A000082E000C990B22E0E212ADCF2EEE3DE098
:1027B0003093010120930001909169009C7F892B47
:1027C00080936900E89AF801D383C28360E08E2D7C
:1027D0000E94E20560E18E2D0E946E02CE010E94F1
:1027E000970653CF9A01A0914604B0914704ED910A
:1027F000FC9111970480F581E02D462F682FCD01C3
:102800000995811104C083E193E00C94FD120895B1
:10281000CF93DF93EB01A0914604B0914704ED9173
:10282000FC9111970280F381E02DAB01682FCD015F
:102830000995811109C0CF37D10531F082E093E0CD
:10284000DF91CF910C94FD12DF91CF9108958F927B
:102850009F92AF92BF92CF92DF92EF92FF92CF936F
:10286000613581F4F90183ED92E0423048F08181D5
:102870009081913009F0EBC1463030F484E992E068
:102880000E94FD1280E04CC09281438150E070E0D4
:1028900060E0A7E0440F551F661F771FAA95D1F788
:1028A000C480D12CF12CE12CBEE0CC0CDD1CEE1C44
:1028B000FF1CBA95D1F74C295D296E297F29492B38
:1028C000C580D12CF12CE12CC5E1CC0CDD1CEE1C1B
:1028D000FF1CCA95D1F74C295D296E297F29C68036
:1028E000D12CF12CE12C9CE1CC0CDD1CEE1CFF1C4E
:1028F0009A95D1F7C42AD52AE62AF72A909104019D
:102900008917C1F09F3F09F47AC00E94930280E0CA
:102910000E94860280E00E9486020E949F0281E05F
:10292000CF91FF90EF90DF90CF90BF90AF909F90AE
:102930008F900895E4E0F4E0C491C7FDE6CF61E034
:102940000E94E205CC2319F0C23009F02DC1EE241B
:10295000FF2460E072E18AE790E0A70196010E94FF
:10296000782D49015A01DA01C9010197A109B1097C
:102970008F3F9105A105B10509F00CF4F9C060E4A1
:1029800072E48FE090E0A70196010E94782D21501B
:10299000310941095109C23009F0ABC082E02F3F33
:1029A00031054105510509F00CF496C160E970ED5F
:1029B00083E090E0A70196010E94782D2150310913
:1029C0004109510983E02F3F31054105510509F0C7
:1029D0000CF482C168E478EE81E090E0A7019601F2
:1029E0000E94782D21503109410951092F3F3105AD
:1029F0004105510511F00CF09AC084E06DC180933F
:102A00000401E4E0F4E0C491CF3F09F47ECFC1308B
:102A100039F148F0C23009F445C0C7FD76CF61E016
:102A20000E94E20591CF14BC15BC94B5926094BD90
:102A300095B5916095BD282F30E0F901E35AFB4F21
:102A4000E491F0E0EE0FFF1FED5AFB4F45915491DA
:102A5000F901EF58FB4FE491E0935C02C0E06FCFC7
:102A60001092800010928100909181009860909364
:102A7000810090918100916090938100282F30E037
:102A8000F901E35AFB4FE491F0E0EE0FFF1FED5A1E
:102A9000FB4F45915491F901EF58FB4FE491E093BE
:102AA0005B024DCF1092B0001092B1009091B00037
:102AB00092609093B0009091B10091609093B100BA
:102AC000282F30E0F901E35AFB4FE491F0E0EE0FDC
:102AD000FF1FED5AFB4F4591549150934303409390
:102AE0004203F901EF58FB4FE491E0934403C2E045
:102AF00026CF2F3F31054105510509F00CF452C096
:102B000068E478EE81E090E0A70196010E94782DBC
:102B10002150310941095109CC2309F4B2C02F3F9A
:102B200031054105510509F00CF467CFB2C064E2EC
:102B300074EF80E090E0A70196010E94782D21506B
:102B400031094109510985E02F3F31054105510502
:102B500009F008F4C1C062E17AE780E090E0A701E3
:102B600096010E94782D21503109410951099FC0D9
:102B70009C0181E0C111B0C095B5987F892B85BDBE
:102B800027BD8FEF9FEFDC0180936102909362027B
:102B9000A0936302B093640280916E008260809380
:102BA0006E00B3CE82E0E6CFEE24FF2460E072E157
:102BB0008AE790E0A70196010E94782D2150310903
:102BC0004109510991E02115310581E0480751057E
:102BD0006CF068E478EE81E090E0A70196010E9435
:102BE000782D215031094109510993E0C13009F094
:102BF00079C080918100887F892B809381003093F8
:102C00008900209388008FEF9FEFDC0180935D02A5
:102C100090935E02A0935F02B093600280916F0078
:102C2000826080936F0071CE2093B3008FEF9FEF8F
:102C3000DC018093450390934603A0934703B09330
:102C40004803809170008260809370005ECE0E9485
:102C5000B6055BCE84E02F3F31054105510509F0F3
:102C600008F48ACF8AE0B594A794979487948A95BC
:102C7000D1F7A5019401215031094109510985E09D
:102C80007BCF83E02F3F31054105510509F00CF45E
:102C900073CF62E17AE780E090E0A70196010E949D
:102CA000782D2150310941095109CC2399F286E050
:102CB0002F3F31054105510579F070F09AE0B59448
:102CC000A794979487949A95D1F7A50194012150E0
:102CD00031094109510987E09091B100987F892B12
:102CE0008093B100C13009F48ACFC23009F49CCF7F
:102CF000C1110BCE45CFFC0112AE9FB7F894809165
:102D00005A02882319F0815080935A0280915A0206
:102D1000811105C08CB58F7B8CBD109259029FBF6D
:102D200080E392E00C94FD12FC0122AD21110C9481
:102D30007B160895DC0186EF860F843090F44C30CA
:102D4000510589F0DA968C91DA97882359F0E62FAD
:102D5000F0E0E856FB4F80818C3019F4CD010E94E1
:102D60007B1680E0089581E008954F925F926F9204
:102D70007F928F929F92AF92BF92CF92DF92EF920B
:102D80000F931F93CF93DF936C01D62F5A01122F0D
:102D90004F3F540709F492C081E08093750360931C
:102DA00097031092760310929803642F86E394E0C1
:102DB0000E94A80B802F0E94600AF601E45BFF4F7F
:102DC000808191818230910538F0880F991F880F9A
:102DD000991F05970197F1F70E9433062B013C01DB
:102DE00080916F0381116CC0C12F113208F0C0E2D5
:102DF00081E080936F0380936E039FEF90936D0348
:102E000010926C039C0F90936B0380934A039091F4
:102E10004A038D2F880F892B80934A0380914903A1
:102E2000813009F0A1C0109249030E9433062B01A2
:102E30003C0180914A038093BB0080917103909183
:102E40007203A0917303B0917403892B8A2B8B2B8F
:102E5000A1F00E94330620917103309172034091DA
:102E6000730350917403641975098609970926172D
:102E700037074807590708F444C08091BC0083FD18
:102E8000D8CF85EC8093BC000E9433062B013C0117
:102E900080916F03813009F469C080916C038C17B5
:102EA00010F4C0916C03ABE4B3E0E5E6F2E080E03F
:102EB0008C1761F19D9191938F5FFACFA12C8CCFEC
:102EC0008091710390917203A0917303B091740388
:102ED000892B8A2B8B2B09F483CF0E9433062091F8
:102EE000710330917203409173035091740364191C
:102EF000750986099709261737074807590708F003
:102F00006FCF809170030E944A0AC0E0109286023F
:102F1000C0938502212F30E08C2F90E028173907CD
:102F20000CF046C08AE793E00E94FD12F601A2A6CB
:102F30003601FBE26F0E711C912C812CA12EB12C5D
:102F40008A149B04DCF59091850280918602981783
:102F5000A9F186E394E00E94610B9FEF891A990A18
:102F6000F30181933F01ECCF85EE8CCF809171030B
:102F700090917203A0917303B0917403892B8A2BF3
:102F80008B2B09F485CF0E94330620917103309179
:102F90007203409173035091740364197509860993
:102FA0009709261737074807590708F071CFA9CFA7
:102FB000821793070CF0BACF1C2FB8CF0E94930250
:102FC00087E70E9486028D2F0E9486028E2D0E9426
:102FD0008602E601AA96D12CC12C899190E00E942C
:102FE000B802FFEFCF1ADF0AAC14BD04B4F7DF91CB
:102FF000CF911F910F91EF90DF90CF90BF90AF9046
:103000009F908F907F906F905F904F900C949F0255
:10301000CF92DF92EF92FF920F931F93CF93DF93A4
:103020006C012BE4C20ED11CF601208127FD28C0C3
:10303000EC0110E085E0F82E812F90E0F601208170
:10304000022E000C330B28173907D4F0F89EF0013C
:10305000F99EF00D1124EC0FFD1F0196F89ED00192
:10306000F99EB00D1124AC0FBD1F43815481E12C9A
:1030700006812C916281CE010E94B5161F5FDCCFC4
:10308000DF91CF911F910F91FF90EF90DF90CF9044
:103090000895CF92DF92EF92FF920F931F93CF93F9
:1030A000DF93E42EE901663729F0683709F4FBC0A5
:1030B00010E01CC0FC01E65BFF4F10811123B1F052
:1030C000398135FF05C088EA93E00E94FD120EC0E9
:1030D000688141E036FB002700F90427232F28717F
:1030E000283009F43EC060F42223C9F0812FDF911B
:1030F000CF911F910F91FF90EF90DF90CF900895A7
:10310000203109F44BC0283189F7EC01C55BDF4F52
:10311000388113160CF481C08FEF8883E7CF40937A
:10312000750360939703109276031092980302E060
:103130000E1578F4FE01E00FF11D61816795662799
:1031400067958081680F86E394E00E94A80B0E5F6C
:10315000EFCF81E00E94600A83E191E00197F1F7EF
:10316000C5CF7A812B8146E0E41211C0A0E82A9FE6
:10317000A0011124470F511D2D8127952227279546
:103180007C81270F3770E32E0E94B516AFCF2795AD
:1031900022272795270F4FEF5FEFF4CFFC01E55B68
:1031A000FF4F408147301CF087E993E08ECFAA8122
:1031B0003B81B6E0EB122AC050E8359F9001112404
:1031C000A20FB32FB11D3D813795332737952C8141
:1031D000320F4F5F4083042E000C550B25E0249FD7
:1031E000F001259FF00D1124E80FF91F6283B483CD
:1031F000A3834F5F5F4F249FB001259F700D112463
:10320000860F971FDC013C93068370CF37953327D9
:1032100037953A0FAFEFBFEFDCCF20E0E32E032E60
:10322000000CFF0875E0422F50E0E416F50664F04C
:10323000749FF001759FF00D1124E80FF91F428172
:10324000641719F02F5FEFCF20E045E0622F70E0A8
:10325000E616F7062CF1283008F5FB0131964E9F53
:10326000D0014F9FB00D1124A80FB91F12965C9189
:103270001297469FF001479FF00D11246F01C80E71
:10328000D91EF601528313966D917C911497748325
:1032900063835285558316965C9156832F5FD6CFF4
:1032A0003150388323CF2981B0E82B9FA00111240E
:1032B0002881240F352F311D2115310529F0FC01FE
:1032C000E45BFF4F318320838C01065B1F4FF801C5
:1032D0008081811133C0D0E0C0E08C2F82518230D8
:1032E00070F4FE01E856FB4F80818F3739F166E0BC
:1032F0008C2F0E946E0266E08C2F0E94E2052196C0
:10330000C431D10551F781E0D8018C930E941F0A86
:103310001092860210928502109276031092980302
:103320000E942C0A80E59BE09093A9028093A8025A
:1033300081E59BE09093AD028093AC02F80110818F
:10334000D5CECF9343305105D1F4633041F08BEFAC
:10335000860F823020F087EF860F833080F4C62FEF
:1033600061E08C2F0E94E20561E08C2F0E94E20553
:1033700060E08C2F0E94880581E0CF91089580E065
:10338000FCCFCF93DF93FC01D2EFD60FD63058F5A8
:10339000A281B38121E030E00D2E02C0220F331F45
:1033A0000A94E2F742305105C1F4C62F2A2B3B2B79
:1033B000338322838091C004811107C08D2F0E9426
:1033C0001E06BC018D2F0E94D00360E08C2F0E944E
:1033D000E20581E0DF91CF910895209530952A2371
:1033E0003B233383228380E0F5CF0C94692F1F9316
:1033F000CF93DF93EC0118E0612FCE010E94DB0B2D
:10340000009711F00E94692F1F5F1C30A9F78FEF02
:103410008AA3FE013A96CE018396DE01AD5ABF4FD4
:10342000AE014E5D5F4F11921192EC01199219920B
:1034300019921992CE011D929F012D5A3F4FE90119
:1034400019821882E417F50771F7DF91CF911F9168
:1034500008950C94692F0C94692F0C94692F0C9487
:10346000692F0C94692F0C94692F0C94692F0C947C
:10347000692F0C94692F0C94692F0C94692F0C946C
:10348000692F0C94692FCF93DF93C62FD0E0CC0F18
:10349000DD1FC80FD91FBA91AA911097A1F0EC9126
:1034A0002E2F30E0F901EE0FFF1FE20FF31FEB5E4E
:1034B000FC4F908196FF02C09F7B9083CD010E94BC
:1034C000692F19821882DF91CF9108950F931F936E
:1034D000CF938C01C0E08EEF8C0F8C3020F46C2FDA
:1034E000C8010E94431ACF5FC431A9F7CF911F9141
:1034F0000F910895CF93DF93EC018E819F81009708
:1035000021F00E94692F1F821E82DF91CF910895C2
:10351000CF93DF93FC012281222341F0EC018581CE
:1035200096810E94692F1E821D821A82DF91CF919F
:103530000895CF93DF93EC016250623170F481E023
:103540004F30510559F08A81882341F08D819E8149
:103550000E94692F1E821D821A8280E0DF91CF9126
:1035600008954F925F926F927F928F929F92AF9247
:10357000BF92CF92DF92EF92FF920F931F93CF9360
:10358000DF93CDB7DEB7A1970FB6F894DEBF0FBEBD
:10359000CDBF7C015A016B010E94422C4C018091ED
:1035A000C104811126C0C7010E94FB0419A2950124
:1035B000A6018E010F5D1F4F8AE0482E512C612C11
:1035C000712CCA01B901A30192010E94CE2D605D48
:1035D000D8016E938D01211531054105510589F7FB
:1035E000109719F0CD010E942C1281E492E00E9404
:1035F0002C120E94930280914C0490914D04DC01A6
:10360000ED91FC910190F081E02D61E7099510E0CA
:1036100000E00815190554F4F701E00FF11F84913B
:1036200090E00E94B8020F5F1F4FF3CF20E1FE0130
:1036300031964F01AF01B501C6010E944B2CF40138
:1036400001900020E9F731977F01E818F908B701E8
:103650006F5F7F4F90E080E00E94F22F8C01009717
:10366000C9F0DC011C92B4010E94BF30D12CC12CE6
:10367000CE14DF0491F080E00115110521F0F8016E
:10368000EC0DFD1D808190E00E94B802BFEFCB1AC7
:10369000DB0AEECFF12CE12CE9CF0E949F0201154D
:1036A0001105C9F0C801A1960FB6F894DEBF0FBE90
:1036B000CDBFDF91CF911F910F91FF90EF90DF90E1
:1036C000CF90BF90AF909F908F907F906F905F90C2
:1036D0004F900C94692FA1960FB6F894DEBF0FBEE1
:1036E000CDBFDF91CF911F910F91FF90EF90DF90B1
:1036F000CF90BF90AF909F908F907F906F905F9092
:103700004F9008952F923F924F925F926F927F92C7
:103710008F929F92AF92BF92CF92DF92EF92FF92E1
:103720000F931F93CF93DF93CDB7DEB7C754D10963
:103730000FB6F894DEBF0FBECDBF4C016A01DC01AD
:10374000DA968C9181111EC08FE192E00E94FD12E9
:10375000C95BDF4F0FB6F894DEBF0FBECDBFDF9160
:10376000CF911F910F91FF90EF90DF90CF90BF907E
:10377000AF909F908F907F906F905F904F903F9011
:103780002F9008952223D9F06430D8F0F6014081BB
:10379000F401B12CA12C8281481709F427C13FEF15
:1037A000A31AB30A379688E0A816B104A1F750E02F
:1037B00070E060E085ED91E00E94B11AC9CF6630FB
:1037C00028F780E092E0C2CF87E08A9DF0018B9DD0
:1037D000F00D1124E80DF91D9581911116C0F60127
:1037E0009E012F5F3F4FD90194E07D01E21AF30A59
:1037F0003296961708F008C18381879588278795A8
:103800004281840F8D939E5FF0CF6450770B869F2B
:103810007001879FF00C112463E0F594E7946A959A
:10382000E1F7B1E4EB16F1041CF08AEA91E08ECFE7
:103830001601E4E02E0E311C9E012F5F3F4F29013F
:10384000F90130E020E057E0652E712CCF0184199A
:1038500095098E159F050CF0D7C0C901B3010E94D0
:10386000B32ED101A60FB71F11966C911197A3012A
:10387000481B590B01C0660F4A95EAF74C9150E07E
:1038800002C0559547958A95E2F7642B6193285FAE
:103890003F4FDCCF809358020DC1F7013197E80FFD
:1038A000F91F0DB407FEFDCF8EB5808380915902BC
:1038B000882359F09FB7F8942091590280915802BB
:1038C000213009F05BC08DBB9FBFF6018281882348
:1038D00061F087E08A9DF0018B9DF00D1124E80DC9
:1038E000F91D61E084810E9488050130110509F00D
:1038F0002FCF0E94930288E60E94860285E00E94F4
:103900008602D6018C910E948602F60181810E9476
:1039100086028E2D0E94860227E02A9DC0012B9DE3
:10392000900D1124880E991ED40115968C91FE01DC
:1039300031965F018F01882309F44BC04F0110E0DD
:1039400000E0512C48E0642E712CC4018A199B09B7
:103950008E159F05B4F5D4018D914D01C82ED12C43
:103960000115110569F48F770E948602CC0CCD2CCD
:10397000CC1CDD085C2C01E010E0E7CF8FBFA5CFA9
:10398000C601002E01C0880F0A94EAF78F778529B7
:103990000E9486020630110541F4C601959587956F
:1039A0000E94860210E000E0D0CF0F5F1F4FC301DE
:1039B000801B910B02C0D594C7948A95E2F75C2CCA
:1039C000C4CF012B19F0852D0E9486020E949F0210
:1039D000BFCEC8018A199B098E159F05BCF7F80157
:1039E00081918F0190E00E94B802F3CF222309F465
:1039F000EBCED6011396EC90F12CA70170E060E0BD
:103A0000CE0101960E94B8300230110569F580EFB1
:103A100022968FAF229788E623968FAF239785E073
:103A200024968FAF2497D6018C9125968FAF25973A
:103A300011968C9126968FAF269727961FAE2797C3
:103A400087EF28968FAF289780914C0490914D0472
:103A5000DC01ED91FC910280F381E02D47E050E024
:103A6000BE016F5B7F4F099587E08A9D30018B9D7A
:103A7000700C1124F401E60DF71D60E084810E94B2
:103A80008805B6E06B0E711CF401E60DF71D208170
:103A9000918180915902882369F08FB7F894309111
:103AA0005902313009F0F6CE3DB3309358023DB3A0
:103AB0003DBB8FBF2CBD9DBDE114F10409F4F6CED2
:103AC00089818EBDFE0131969701CF0121503109C8
:103AD00009F4E3CE51810DB407FEFDCF4EB55EBDB6
:103AE0004193F4CFCF93DF93CDB7DEB7DF91CF9182
:103AF0000895CF92DF92EF92FF920F931F93CF938F
:103B0000DF93683649F4D901F42EEC01411106C067
:103B100088E690E00E94FD1280E025C0A9014F5F79
:103B20005F4FFA948C91883008F083C1E82FF0E061
:103B3000E456F24E0C94C72EA41D1B1E161F0F1F19
:103B4000071F191F031F131F8AAD81110CC051E0FD
:103B5000F51204C011968C91882371F085EB90E0EA
:103B60000E94FD1281E0DF91CF911F910F91FF9094
:103B7000EF90DF90CF9008958091A4048F3781F16A
:103B80006CE08CE00E946E0260E08CE00E94E20536
:103B90008091A3048F3721F16CE08BE00E946E02CC
:103BA00061E08BE00E94E2058091A5048F37C1F0AF
:103BB0006CE08DE00E946E0261E08DE00E94E20503
:103BC000FAAECFB7F89480915A02882361F08091C1
:103BD0005A028F5F80935A02CFBF89EA90E0C0CF2C
:103BE00081E990E0BDCFE7E6F4E08491EBE7F4E013
:103BF0009491E82FF0E0EE0FFF1FEA51FC4FA591E2
:103C0000B491EC91E92321F461E08AE00E948805F7
:103C100061E08AE00E94E2058CB580618CBD8CB5C4
:103C200080648CBD61E08DE00E94E20561E08BE084
:103C30000E94E205CCCF89E08F1518F087E691E06D
:103C40008FCF11964C9111977E01BE012FEF3FEF60
:103C500090E080E0FB015281541301C09C01019669
:103C6000695F7F4F88309105A9F72F3F3207A1F494
:103C700090E080E0F7015085511101C09C01019650
:103C8000F7E0EF0EF11C88309105A1F785E391E094
:103C90002F3F320709F464CF18968C911897877FCD
:103CA00019F087E091E05CCF842F837041F050E001
:103CB00070E060E089ED90E00E94B11A53CF87E098
:103CC000829FF001839FF00D1124EC0FFD1F4283B2
:103CD00012968C911297182F117083FB882780F908
:103CE000858313968C9113971496CC901497D12CAE
:103CF000F12CE12C47E0CC0CDD1CEE1CFF1C4A959E
:103D0000D1F715964C91159750E070E060E00EE009
:103D1000440F551F661F771F0A95D1F7C42AD52A6D
:103D2000E62AF72AC82A16964C91169750E070E0BA
:103D300060E085E1440F551F661F771F8A95D1F714
:103D4000C42AD52AE62AF72A17968C911797482F66
:103D500050E070E060E09CE1440F551F661F771F44
:103D60009A95D1F74C295D296E297F2919968C9156
:103D7000199783831A968C91848381E080874115FB
:103D800051056105710521F440E45BE46CE470E0E9
:103D9000C12C92E1D92E9AE7E92EF12C90E04C1536
:103DA0005D056E057F0540F4F694E794D794C794BB
:103DB0009F5F9630A1F797E081E0892760E51111B8
:103DC00001C060E777E0729FA001739F500D11243E
:103DD000FA013696EC0FFD1F8695862B8083909511
:103DE00091709183C40FD51F8B8180FD03C08FEF2D
:103DF0008C83B8CE61E08C810E946E0261E08C8180
:103E00000E94E205AFCECE010E947B16ABCE01E050
:103E100010E021E06F2DCE010E94821BA3CE10E0A6
:103E200000E020E0F7CF02E010E0FBCF01E010E07F
:103E3000F8CF482F50E070E060E084E991E03CCF9B
:103E400085ED8093BC008091710390917203A091E5
:103E50007303B09174030796A11DB11D23E0B695BD
:103E6000A795979587952A95D1F72091BC0024FDB9
:103E700003C010926F030895409171035091720333
:103E80006091730370917403452B462B472B69F3A4
:103E90000097A105B10541F02AE22A95F1F700C08B
:103EA0000197A109B109E1CF809170030C944A0AEE
:103EB0007F928F929F92AF92BF92CF92DF92EF92BA
:103EC000FF920F931F93CF93DF93EC01D9016036DC
:103ED00009F0BBC08C91182F1F701C3008F0B5C0C2
:103EE000807F803309F493C15901042F813338F462
:103EF0008031A1F1803209F46CC181E0A7C0803625
:103F000009F4E3C1803709F4EFC18035B1F7612FBF
:103F1000CE010E94DB0BEC01009779F3183008F01A
:103F2000CEC1E881F9810680F781E02D0995EA8903
:103F3000FB8980818F7E8083EA89FB898081877FEE
:103F40008083EA89FB8980818F778083EA89FB8976
:103F500080818F7D80838A8D898FCFCFD901129602
:103F6000CC901297D12CF12CE12CE7E0CC0CDD1C8D
:103F7000EE1CFF1CEA95D1F713968C9190E0B0E00F
:103F8000A0E0FEE0880F991FAA1FBB1FFA95D1F78A
:103F90008C299D29AE29BF29F90121816C017D0160
:103FA000C22A812F90E0FC01EE0FFF1FEC0FFD1FD6
:103FB000E15AFF4F11821082FC01EE0FFF1FEE0F3E
:103FC000FF1FEC0FFD1F13A214A215A216A28C0F47
:103FD0009D1FFC01ED5AFF4F1082183060F4612FD5
:103FE000CE010E94DB0B009709F487CFB701A60131
:103FF0000E94400382CF453020F1D50114960C91E8
:10400000149715967C901A3009F4C6C01B3009F439
:10401000C8C0193049F55E01B9E7AB0EB11CF50116
:1040200080819181892BA9F58FE190E00E94CD2EAE
:104030004C01472D602F0E94D727D5018D929C926D
:1040400028C088EC93E00E94FD1280E0DF91CF91C0
:104050001F910F91FF90EF90DF90CF90BF90AF90A6
:104060009F908F907F9008954E01B7E78B0E911C23
:10407000F40180819181892B61F48FE190E00E94AD
:10408000CD2E5C01472D602F0E94D727D401AD9221
:10409000BC92612FCE010E94DB0BEC01892B09F44D
:1040A0002CCF6AE0802F0E946E026AE0872D0E946A
:1040B0006E021B8E1A8E198E188E1F8A1E8A60E061
:1040C00079E08DE390E0A70196010E94782DF90137
:1040D000C90103972430310510F481E090E09D8FF1
:1040E0008C8F6C85663108F053C0C9019695879511
:1040F0008431910508F45AC043979F8B8E8BC90178
:104100000597369710F481E090E0998F888FC90168
:10411000880F991F280F391F3695279536952795B3
:104120002D30310508F445C02C5031093B8F2A8FC2
:104130009091680084E0683048F021E06E3008F427
:1041400020E081E001C0880F2A95EAF7892B80934F
:1041500068009C852DE630E0983050F02BE630E08A
:104160009E3030F02CE630E0963110F030E020E068
:104170003C8B2B8B292F30E09830F0F481E001C08C
:10418000880F9A95EAF78D8B8C8D9D8D0197F1F7AD
:10419000CE010E94CF09B1CE5E01BBE7AB0EB11CD0
:1041A0003ECF5E01BDE7AB0EB11C39CF81E090E0A0
:1041B000A4CF21E030E0BACF9E3040F4285031093E
:1041C00081E001C0880F2A95EAF7DDCF2E50310932
:1041D000F7CF612FCE010E94DB0B7C01892B09F404
:1041E0008CCEE50111E0101708F087CE6A81679543
:1041F000662767958981680FD701ED91FC91019041
:10420000F081E02DC70109951E5F2296ECCF119633
:104210008C911197811126C03AA137300CF06DCEE8
:10422000812F90E00596880F991FFE01E80FF91F76
:104230004330A8F013968C91139720E8829FC00119
:10424000112412962C91822B9183808381E0830F1D
:104250008AA3C80FD11D87FDDA951A834ECE11822D
:104260001082F4CF813009F048CE9AA119161CF0C3
:104270008FEF8AA342CE80E0492F092E000C550B08
:10428000282F30E04217530774F480E0E82FF0E065
:104290004E175F078CF0883020F4EC0FFD1F238150
:1042A00022838F5FF3CF2C0F3D1FD90112962C91E3
:1042B000121761F38F5FE4CF91509AA31ECE0E9434
:1042C000B909CE010E94692F18CE612FCE010E943C
:1042D000DB0B009709F411CEDC01ED91FC91068017
:1042E000F781E02D099509CE183008F406CE612F2C
:1042F000CE010E94DB0B009709F04BCFFECDCF9291
:10430000DF92EF92FF920F931F93CF93DF937A0187
:104310006901C62FD0E08E01000F111F080F191F71
:10432000D8019E918E918D010097E9F483E090E091
:104330000E94CD2E209113032C30D0F531E0320FA6
:1043400030931303FC01208330E0F901EE0FFF1FCF
:10435000E20FF31FEB5EFC4F28EB3BE0328321833F
:10436000F80191838083DC01EC912E2F30E0F9017C
:10437000EE0FFF1FE20FF31FEB5EFC4F208126FFC5
:1043800002C02F7B2083F7FE06C020E639E040E222
:1043900052E0D7FC02C09601A701BE01DF91CF9188
:1043A0001F910F91FF90EF90DF90CF900C94E1065A
:1043B0002FEFDC012C93D4CFCF92DF92EF92FF92BC
:1043C0000F931F93CF936037B1F54530A0F1F901FA
:1043D000C0814EEF4C0F4C3070F5EC2FF0E0E856FA
:1043E000FB4F40814F3739F1F9018C01E28020E821
:1043F000E29EC0011124E180E80EF92EF11CC48078
:1044000020E8C29EC0011124C380C80ED92ED11C41
:1044100064E08C2F0E946E029601A7016C2FC801E8
:104420000E947F2181E0CF911F910F91FF90EF902B
:10443000DF90CF90089580E0F6CF2EEF260F2C303E
:1044400068F44430510541F42FEF3FEF4FEF5FEF39
:104450000E947F2181E008950E94431A80E0089520
:104460009F92AF92BF92CF92DF92EF92FF920F9303
:104470001F93CF93DF93603541F4F901EC01433092
:1044800030F486E692E00E94FD1280E03DC092800A
:10449000E180F0808E819F812A813B81CF2CD12CBD
:1044A000AE2CB12C0097E1F12C153D0509F040C070
:1044B0002C813D81A216B306B1F5911063C08E81A7
:1044C0009F810E94600768E370E00E949F2E84E64F
:1044D000869FE001879FD00D11240E94930280E502
:1044E0000E9486028F2D0E9486028E2D0E948602D7
:1044F000892D0E948602BE01DD0F880B990B0E9458
:10450000DF020E949F0281E0DF91CF911F910F9106
:10451000FF90EF90DF90CF90BF90AF909F90089565
:104520002C153D0529F42C813D812C153D0521F0EC
:104530000E94692F1F821E828BE090E00E94CD2E88
:104540008C01FC01F082E18281E0EF1080E0F80153
:10455000828361E08F2D0E94E20560E0F801818195
:104560000E94E20580E29EE4A0E0B0E0F8018783CB
:104570009087A187B2871F830E83DB82CA82BD82A8
:10458000AC829BCFF1E09F1280CF8E819F810E94F1
:1045900060076EE870E099CF8F929F92AF92BF92C2
:1045A000CF92DF92EF92FF920F931F93CF93DF93FF
:1045B000643741F4F901EC01423030F48AE392E0CF
:1045C0000E94FD1280E00CC0E08083E0E81215C07C
:1045D0008D819E810E94692F1E821D821A8281E038
:1045E000DF91CF911F910F91FF90EF90DF90CF90CF
:1045F000BF90AF909F908F900895A1E0EA1631F0A0
:10460000B2E0EB1205C056E1E52E02C06BE0E62EEB
:10461000F1800F2D10E08A8181114FC01C830B8324
:1046200081E08A8383E190E00E94CD2E6C01FC0141
:10463000F582E682F801EF58FB4FE491DC01179612
:10464000EC931797F801E35AFB4FE4911896EC931B
:1046500080E89EE3A0E0B0E0F60185879687A78713
:10466000B08BDE82CD8262E08F2D0E94E2050E9437
:104670008B06605D774081099109D60119966D938B
:104680007D938D939C931C9787E352968C930D8119
:104690001E81C8010E940908882351F0F801868113
:1046A0008B3030F08D3098F08551823008F446C060
:1046B00060E070E080EC9FE725C08B819C818017D3
:1046C000910729F38D819E810E94692FABCF618173
:1046D00070E090E080E00E947F2C2DEC3CEC4CECF4
:1046E0005DE30E94BA2C4B015C01F801608170E02F
:1046F00090E080E00E947F2C9B01AC01C501B401D9
:104700000E94F12D0E945D2E2AE0269F8001279FA6
:10471000100D11240D80DE81C02DCE010E940908EC
:10472000882339F08E818C3009F484C0B8F48B3042
:1047300061F160E070E080EC9FE74DC060817181C5
:1047400076276727762790E080E00E947D2C2DEC6D
:104750003CEC4CEC5DE30E94BA2CD4CF8551823006
:1047600040F7EA806E2D70E0762F662766277F7708
:104770008B81682B90E080E00E947D2C2DEC3CEC3E
:104780004CEC5DE30E94BA2C6FC06A8170E090E04F
:1047900080E00E947D2C4B015C01CB81C7FF0AC0E9
:1047A000AC019B0160E070E080E89FEB0E94F02D7F
:1047B0004B015C01CF706C2F70E090E080E00E94B4
:1047C0007F2C2DEC3CEC4CEC5DE30E94BA2CA50157
:1047D00094010E94F12D20E030E040E251E40E947B
:1047E000BA2C0E945D2E4B010E94930284E70E9426
:1047F000860280E00E9486028F2D0E948602882D0C
:104800008F770E948602C401880F892F881F990B19
:104810008F770E948602802F8F770E948602C801C0
:10482000880F892F881F990B8F770E9486020E941C
:104830009F02D5CEEA806E2D70E090E080E00E946D
:104840007D2C4B015C016B816F7070E090E080E02B
:104850000E947F2C2DEC3CEC4CEC5DE30E94BA2CCA
:10486000A50194010E94F12DE7FEB5CF9058B3CF7A
:104870001F920F920FB60F9211242F933F934F93D5
:104880005F936F937F938F939F93AF93BF93EF93B8
:10489000FF938091450390914603A0914703B09107
:1048A0004803892B8A2B8B2BD1F190914403E09103
:1048B0004203F091430380818927808380914503DF
:1048C00090914603A0914703B0914803181619062A
:1048D0001A061B069CF48091450390914603A09113
:1048E0004703B09148030197A109B109809345039B
:1048F00090934603A0934703B0934803FF91EF9131
:10490000BF91AF919F918F917F916F915F914F91E7
:104910003F912F910F900FBE0F901F90189580918F
:1049200004010E94B605EACF1F920F920FB60F92B4
:1049300011242F933F934F935F936F937F938F93A4
:104940009F93AF93BF93EF93FF9389E993E00E9406
:104950008C04FF91EF91BF91AF919F918F917F91C7
:104960006F915F914F913F912F910F900FBE0F90DC
:104970001F9018951F920F920FB60F9211242F932C
:104980008F939F93EF93FF93E091A903F091AA0374
:104990008081E091AF03F091B00382FD1BC0908154
:1049A0008091B2038F5F8F732091B303821741F020
:1049B000E091B203F0E0E756FC4F958F8093B2038D
:1049C000FF91EF919F918F912F910F900FBE0F90BC
:1049D0001F9018958081F4CF1F920F920FB60F92FF
:1049E00011242F933F938F939F93AF93BF93809105
:1049F0003A0390913B03A0913C03B0913D03309169
:104A0000390323E0230F2D3758F50196A11DB11D61
:104A10002093390380933A0390933B03A0933C0384
:104A2000B0933D0380913E0390913F03A0914003DA
:104A3000B09141030196A11DB11D80933E03909357
:104A40003F03A0934003B0934103BF91AF919F9167
:104A50008F913F912F910F900FBE0F901F9018953F
:104A600026E8230F0296A11DB11DD2CF1F920F92EF
:104A70000FB60F9211242F933F934F935F936F9331
:104A80007F938F939F93AF93BF93EF93FF93E091A7
:104A90000201F09103010995FF91EF91BF91AF9150
:104AA0009F918F917F916F915F914F913F912F9146
:104AB0000F900FBE0F901F9018951F920F920FB678
:104AC0000F9211242F933F934F935F936F937F9394
:104AD0008F939F93AF93BF93EF93FF93E091000168
:104AE000F09101010995FF91EF91BF91AF919F91D5
:104AF0008F917F916F915F914F913F912F910F9087
:104B00000FBE0F901F9018951F920F920FB60F9225
:104B100011242F933F934F935F936F937F938F93C2
:104B20009F93AF93BF93CF93DF93EF93FF938091C6
:104B30001403C0911303D0E087FF24C010928500B6
:104B400010928400809114038F5F809314038091EE
:104B50001403082E000C990B8C179D0724F48091E8
:104B600014038C30C4F180918400909185000496E8
:104B700080349C4908F47AC080918400909185002B
:104B8000049676C080911403082E000C990B8C17A4
:104B90009D07C4F6E09114038E2FEE0F990BFC01D4
:104BA000EE0FFF1FE80FF91FEB5EFC4F808186FFC1
:104BB000C9CFE09114038E2FEE0F990BFC01EE0F7D
:104BC000FF1FE80FF91FEB5EFC4F808160E08F73E1
:104BD0000E948805B7CF2091840030918500E09134
:104BE00014038E2FEE0F990BFC01EE0FFF1FE80F41
:104BF000F91FEB5EFC4F81819281820F931F90938E
:104C0000890080938800E09114038E2FEE0F990B9A
:104C1000FC01EE0FFF1FE80FF91FEB5EFC4F8081D8
:104C200086FF11C0E09114038E2FEE0F990BFC014B
:104C3000EE0FFF1FE80FF91FEB5EFC4F808161E074
:104C40008F730E948805FF91EF91DF91CF91BF9103
:104C5000AF919F918F917F916F915F914F913F9114
:104C60002F910F900FBE0F901F90189580E49CE934
:104C700090938900809388008FEF80931403E3CF93
:104C80001F920F920FB60F9211242F933F934F93C1
:104C90005F936F937F938F939F93AF93BF93EF93A4
:104CA000FF93E0911103F0911203309749F0A6852C
:104CB000B7858585968D91FF14C09C918923A1F4B9
:104CC000FF91EF91BF91AF919F918F917F916F91E4
:104CD0005F914F913F912F910F900FBE0F901F90BA
:104CE00018959C91892361F7A389B4899C91858942
:104CF000809589238C93868997890197F1F7608D38
:104D0000718DA685B785558538E020E0CB010197E8
:104D1000F1F7822F90E095958795282F4C914523A8
:104D200009F02068315091F7868D81FD20958091A2
:104D30000F0390E001968F73992730911003381775
:104D400099F0A0910F03B0E0A153BD4F2C93809335
:104D50000F03828D938D0197F1F7A389B4898C910C
:104D60009589892B8C93ACCF868D8160868FF1CF0E
:104D70001F920F920FB60F9211242F933F934F93D0
:104D80005F936F937F938F939F93AF93BF93EF93B3
:104D9000FF938091B900887F803609F44AC0F0F50E
:104DA000883209F4A7C018F5803109F49BC0B8F423
:104DB000882309F4F9C0883009F494C0FF91EF9179
:104DC000BF91AF919F918F917F916F915F914F9123
:104DD0003F912F910F900FBE0F901F901895883123
:104DE00009F488C0803251F780936D0314C0803479
:104DF00009F49DC040F48033B9F38833F9F6809309
:104E00006D0385ECB0C0803509F485C0883509F4A0
:104E100096C0883499F60E94201FD0CF883909F4B3
:104E20008CC038F5883729F050F4883611F0803777
:104E300029F683E080936F031092CE0257C0883822
:104E400009F47BC0803919F0803809F0B7CF809120
:104E5000CE02803208F071C0E091CE0281E08E0F68
:104E60008093CE028091BB00F0E0E255FD4F80833D
:104E70003DC0803B39F0E0F4803A09F479C0883ACB
:104E800009F09CCF84E080936F031092AB021092E4
:104E9000AA02E091A802F091A90209958091AA02C4
:104EA00081110FC081E08093AA021092880209C08C
:104EB000803C09F4A6CF883C09F4A3CF883B09F0D5
:104EC0007DCFE091AB0281E08E0F8093AB02F0E0EA
:104ED000E857FD4F80818093BB009091AB02809199
:104EE000AA0229C080914A038093BB0085EC80937D
:104EF000BC0064CF90916C0380916B03981758F5B8
:104F0000E0916C0381E08E0F80936C03F0E0E55B31
:104F1000FC4F8081E9CFE0916C0381E08E0F80939C
:104F20006C038091BB00F0E0E55BFC4F80839091C7
:104F30006C0380916B039817C8F285E8D8CFE09195
:104F40006C0381E08E0F80936C038091BB00F0E0D6
:104F5000E55BFC4F808380916E0381115CCF81E023
:104F60008093490384EA8093BC0010926F0326CF9C
:104F700085EC8093BC0010926F038091CE0280324A
:104F800030F4E091CE02F0E0E255FD4F10826091E6
:104F9000CE0270E0E091AC02F091AD028EEA92E0B8
:104FA00009951092CE020ACF10926D0334CF0F9361
:104FB0001F93CF93DF93EC01162F042F1B821A82CD
:104FC00088EE93E0A0E0B0E08C839D83AE83BF8346
:104FD00083E191E0998388831F8A1E8A198E188E37
:104FE0001B8E1A8E1D8E1C8E6E8D6E7F6D7F6E8F4A
:104FF0006695617081E06827842F0E94880561E0D2
:10500000802F0E94E205802F90E0FC01EF58FB4FBB
:10501000E491E88BFC01E35AFB4FE491F0E0EE0FE2
:10502000FF1FED5AFB4F859194919A8B898B60E01D
:10503000812F0E94E2058E8D81FD04C061E0812FE9
:105040000E9488051C87812F90E0FC01EF58FB4FE0
:10505000E491ED87FC01E35AFB4FE491F0E0EE0FA1
:10506000FF1FE75BFB4F859194919F878E87DF91B0
:10507000CF911F910F91089510929C0310929B0362
:1050800088EE93E0A0E0B0E080939D0390939E03B0
:10509000A0939F03B093A00325E231E030939A03DD
:1050A0002093990325EC30E03093A6032093A503C9
:1050B00024EC30E03093A8032093A70320EC30E0E9
:1050C0003093AA032093A90321EC30E03093AC0382
:1050D0002093AB0322EC30E03093AE032093AD037A
:1050E00026EC30E03093B0032093AF031092B2036C
:1050F0001092B3031092B4031092B50310923904C6
:105100001092380480933A0490933B04A0933C049B
:10511000B0933D0487E391E0909337048093360485
:10512000109251041092500483E492E090934F0443
:1051300080934E041092D4040E94B0038BEE91E051
:10514000909358068093570610925F0610925C0663
:10515000109259061092600610925D0610925A063F
:105160001092610610925E0610925B0687E596E04B
:105170009093D6048093D50488EB90E19093C70474
:105180008093C60489ED91E090935606809355066E
:1051900085E596E090934B0480934A0480E99FE074
:1051A0009093C3048093C20485E79FE09093CB045F
:1051B0008093CA0487EC91E0909352068093510645
:1051C00081E596E090934904809348041092540638
:1051D000109253068BED91E19093C5048093C40423
:1051E00085EB91E09093500680934F0683EA91E01F
:1051F000909302068093010610924B068FEF8093E6
:105200004C0610924E0610924D06EBE2F6E080E25C
:10521000DF011D928A95E9F781E991E09093C70536
:105220008093C605E8ECF5E0A6ECB5E090E58FEFDD
:10523000948315821082118282831382168237969C
:1052400026E0E030F207A1F7109200068FEF1296E9
:105250008C93129714968C93149718961C92189707
:1052600015961C921597179695E0AE3FB90779F7FA
:105270002FE731E030934805209347051092BF0592
:105280001092BE051092C1051092C0051092C30580
:105290001092C2051092C5051092C405809369054D
:1052A00087E495E00E94F71983E392E0909341052B
:1052B00080934005109242058FEF9FEF9093440535
:1052C0008093430521E232E030933905209338057D
:1052D00010923F0510923E0590933B0580933A054E
:1052E00090933D0580933C058FE092E090933705C5
:1052F000809336058DE691E090930A058093090529
:1053000089E095E0909347048093460488E094E117
:105310009093C9048093C80482EF93E19093D104E1
:105320008093D004EBE0F5E011921192A5E0E53313
:10533000FA07D1F7109235058DEF91E09093F004C4
:105340008093EF048BE591E09093E4048093E30471
:105350001092E5041092E6041092E7041092E8041B
:105360001092E9041092EA041092EB041092EC04FB
:1053700081E090E09093EE048093ED0489E491E065
:105380009093D8048093D7048FEF9FEF9093DA0423
:105390008093D9041092DB041092DC041092DD0497
:1053A0001092DE04109242041092430410924404BE
:1053B000109245040E948B066093DF047093E00412
:1053C0008093E1049093E2040895789484B5826018
:1053D00084BD84B5816084BD85B5826085BD85B599
:1053E000816085BD80916E00816080936E00109217
:1053F0008100809181008260809381008091810092
:105400008160809381008091800081608093800022
:105410008091B10084608093B1008091B000816080
:105420008093B00080917A00846080937A008091AC
:105430007A00826080937A0080917A008160809304
:105440007A0080917A00806880937A001092C1007F
:1054500084E492E090934F0480934E0483E0809321
:1054600050041092510487E596E00E94A00385E560
:1054700096E00E94A00381E596E00E94A0038FE4DD
:1054800096E00E94A0038FEE94E00E94A00381E0CA
:1054900096E00E94A00387E495E00E94A00383EEBB
:1054A00094E00E94A00386EC95E00E94A00380E4B3
:1054B00095E00E94A00388E395E00E94A00386E3A4
:1054C00095E00E94A00387ED94E00E94A00385E789
:1054D0009EE09093CD048093CC0440E051EE60E0D8
:1054E00070E089E993E00E94400310929D031092BE
:1054F0009E0310929F031092A00389E993E090937A
:105500004D0480934C0481E08093C1048091D404C5
:10551000811127C061E08DE00E94E205C3E062EDE9
:1055200070E080E090E00E94580661E08DE00E940B
:10553000880568E270E080E090E00E94580660E034
:105540008DE00E948805C15051F76AEF70E080E05D
:1055500090E00E9458066DE770E080E090E00E94C5
:1055600058060E941C0380915004882341F08091CA
:105570004C0490914D04892B11F00E94391285E062
:1055800094E00E94FD1210929504109297041092DC
:105590009604109252040E94B003C0E0D0E0FF24B1
:1055A000F39482E0E82E9FE6D92E27EFC22E04E086
:1055B00010E080914C0490914D04DC01ED91FC9140
:1055C0000084F185E02D0995892B91F50E948B06C9
:1055D0006093E5047093E6048093E7049093E804F5
:1055E0008090E9049090EA04A090EB04B090EC0461
:1055F0004090ED045090EE04712C612C9B01AC01A5
:10560000281939094A095B094216530664067506CA
:1056100008F412C160E089E095E00E94310E209705
:1056200041F20E947804882321F20E940000C1CF39
:1056300080914C0490914D04DC01ED91FC91028429
:10564000F385E02D09958F3F9807C1F0382F8F3FE4
:1056500059F41092950410929704109296041092A7
:1056600052040E94B0030AC020919504222371F1D4
:10567000873F71F4109295040E948A12809152041F
:10568000811197CF80919504882309F49FCF91CF02
:105690002091960430919704F901E45BFB4F8187D8
:1056A0002F5F3F4F309397042093960420343105A9
:1056B00029F781E294E00E94FD1210929504109265
:1056C00097041092960410925204D8CF209152045D
:1056D000222309F472C087FD70C09FEF920F909350
:1056E0005204E92FF0E0E45BFB4F8187911161CF19
:1056F00080915304882331F2803D09F453C060F453
:10570000803939F1E091C404F091C504803C09F47A
:105710004DC010925304B2CF843F79F1853FA1F17F
:10572000803EB9F78091550490915604D09255046B
:105730002091540420935604909357048093580466
:10574000C092590410939704009396040E948A1201
:10575000E0CFE091C204F091C3043097D1F26091A0
:10576000550420E8629FC001112460915604680F1F
:10577000792F711D8091540413C06091550480915C
:1057800056040E946E02C5CFE091CA04F091CB048A
:105790006091550470E080915604309709F4B9CFB8
:1057A0000995B7CFE091C604F091C704309709F48A
:1057B000B0CF6091550470E0DDCF303FB8F4282FB2
:1057C000207F30E08F7080935404203F310551F1E9
:1057D000BCF4203C310519F164F42039310509F09D
:1057E0004DCFE09252042093530448CF9C013327BD
:1057F000ECCF203D310599F0203E310591F33ECFAD
:10580000293F3105B1F034F4C901845F9109029751
:1058100040F334CF2F3F310509F423CF2FCFF0923F
:105820005204E1CFF09295041092970410929604DE
:1058300025CF0E941C0322CF840C951CA61CB71CEC
:105840009B01AC01281939094A095B094216530624
:105850006406750650F08092E9049092EA04A092E2
:10586000EB04B092EC0461E0D6CE641975098609A8
:1058700097096093E9047093EA048093EB04909392
:10588000EC04F1CFFC0105900020E9F7809590959C
:105890008E0F9F1F0895BB27FA01A62F621771056F
:1058A00081059105330B30FB66F0AA27660F771F41
:1058B000881F991FAA1FA21710F0A21B63953850CA
:1058C000A9F7A05DAA3308F0A95DA19336F7B1113D
:1058D000B1931082CA010C946D2CDC01FC01672F7E
:1058E00071917723E1F7329704C07C916D937083B7
:1058F0006291AE17BF07C8F30895E89409C097FBFB
:105900003EF490958095709561957F4F8F4F9F4F96
:105910009923A9F0F92F96E9BB279395F6958795DA
:1059200077956795B795F111F8CFFAF4BB0F11F49D
:1059300060FF1BC06F5F7F4F8F4F9F4F16C0882344
:1059400011F096E911C0772321F09EE8872F762F7A
:1059500005C0662371F096E8862F70E060E02AF0BB
:105960009A95660F771F881FDAF7880F96958795A7
:1059700097F908950E94CD2C0C943E2D0E94302D55
:1059800038F00E94372D20F0952311F00C94272D2C
:105990000C942D2D11240C94722D0E944F2D70F318
:1059A000959FC1F3950F50E0551F629FF001729FC4
:1059B000BB27F00DB11D639FAA27F00DB11DAA1FD3
:1059C000649F6627B00DA11D661F829F2227B00D20
:1059D000A11D621F739FB00DA11D621F839FA00DAB
:1059E000611D221F749F3327A00D611D231F849FFB
:1059F000600D211D822F762F6A2F11249F57504052
:105A00009AF0F1F088234AF0EE0FFF1FBB1F661FCC
:105A1000771F881F91505040A9F79E3F510580F095
:105A20000C94272D0C94722D5F3FE4F3983ED4F331
:105A3000869577956795B795F795E7959F5FC1F739
:105A4000FE2B880F911D9695879597F9089597F9E4
:105A50009F6780E870E060E008959FEF80EC089514
:105A600000240A941616170618060906089500243D
:105A70000A9412161306140605060895092E0394B7
:105A8000000C11F4882352F0BB0F40F4BF2B11F42B
:105A900060FF04C06F5F7F4F8F4F9F4F089557FD8A
:105AA0009058440F551F59F05F3F71F04795880F8C
:105AB00097FB991F61F09F3F79F087950895121623
:105AC00013061406551FF2CF4695F1DF08C01616CF
:105AD00017061806991FF1CF869571056105089480
