:100000000C9437040C940C2E0C94E12D0C94B62D0A
:100010000C948B2D0C94602D0C94352D0C940A2D82
:100020000C94DF2C0C94EF2E0C94EF2E0C94EF2EEE
:100030000C9468040C94E52A0C9468040C946804ED
:100040000C9468040C94C12E0C9468040C946804FD
:100050000C9468040C9468040C9468040C94952C1B
:100060000C9468040C946B2C0C94412C0C94680434
:100070000C9468040C9468040C9468040C94680450
:100080000C94932E0C9468040C9468040C946804EB
:100090000C94172C0C94ED2B0C9468040C946B2F7F
:1000A0000C9468040C9468040C94652E0C946804F9
:1000B0000C9468040C9468040C9468040C94372E17
:1000C0000C9468040C9468040C9468040C94C32B7E
:1000D0000C94992B0C9468040C946F2B0C94452B66
:1000E0000C9468040C94A5090C9479290C9481163D
:1000F0000C949B090C9496200C9454160C941C168A
:100100000C94FB0E0C942A170C94E1070C943014F9
:100110000C94D9200C94F0160C944A160C94F820E8
:100120000C9441110C94850F0C9498200C949C20F5
:100130000C94E2070C949F150C94691E0C94800695
:100140000C946F130C94AC0F0C944F120C94361645
:100150000C9450130C9428170C94AA1E0C940C0F9A
:100160000C9474250C94FA160C94F4300C947025AD
:100170000C94D10C0C947C240C94A1090C94861240
:100180000C94A30F0C941F0F0C946D130C94B607D2
:100190000C9472060C94CA070C9408160C94FC0E6E
:1001A0000C9477250C947A250C9455180C94E7112F
:1001B0000C942D0D0C94530F0C9417110C94922049
:1001C0000C94AF070C946D160C948A200C942E1688
:1001D0000C94AF0F0C9497090C948C090C9409069D
:1001E0000C94B80C0C94A1160C9468250C94B411C2
:1001F0000C9434170C9418130C9499090C94FB1C50
:100200000C94D4070C948A130C9495160C949115A5
:100210000C9458200C94BC070C94B50F0C94E72058
:100220000C945E060C9446130C949A200C94D606FB
:100230000C9409110C9463160C94D00C0C94C520EA
:100240000C9427120C9427170C949F090C948B166E
:100250000C94A1070C9481110C9412160C949D0F10
:100260000C94F51C0C9483190C94D6160C949E20B7
:100270000C946F120C9494200C9426160C9440113C
:100280000C94B20F0C9466290C940B120C94361734
:100290000C942B120C9464250C9445130C94430D70
:1002A0000C9482140C94260F0C9403160C94B30730
:1002B0000C94D8230C9425290C9426170C942A12FC
:1002C0000C9429120C9456200C94FB110C94B80F2A
:1002D0000C9420200C943E070C94FD0E0C94A21656
:1002E0000C94DC070C9421110C949D090C94B925F5
:1002F0000C943A140C94D2160C944A170C94A3093B
:100300000C94C0070C94CE070C944F060C942F1439
:100310000C9402200C9405240C94E6070C94902075
:100320000C94A0200C944A140C94C6070C94D80783
:100330000C9440170C9462110C940A110C94291718
:100340000C94A2190C9410150C94A60F0C94401642
:100350000C948E200C94FD150C94AB070C94A707FD
:100360000C9455260C9477160C9454200C9403117D
:100370000C94E5100C946D190C94820F0C94A00F42
:100380000C9425170C948C204572726F7220696E44
:10039000205350495F4441544120636F6D6D616E3D
:1003A000643A20656D707479206D6573736167655B
:1003B000004572726F7220656E61626C696E6720B3
:1003C000535049206D6F6465005350492E62656734
:1003D000696E2829005350495F424547494E3A20EB
:1003E0004F6E6C79206368616E6E656C203020738F
:1003F0007570706F72746564005350495F44455660
:100400004943455F434F4E4649473A204F6E6C790A
:10041000206368616E6E656C203020737570706F3C
:10042000727465643A20005350495F44455649430D
:10043000455F434F4E4649473A204F6E6C7920380E
:100440002062697420776F72647320737570706FA7
:1004500072746564005350495F4445564943455F93
:10046000434F4E4649473A204D6178206E756D6284
:100470006572206F662064657669636573206578B0
:10048000636565646564004E6F7420656E6F7567A3
:1004900068206461746120696E205350495F44454F
:1004A000564943455F434F4E464947206D65737338
:1004B00061676500556E6B6E6F776E2053504920F3
:1004C000636F6D6D616E643A20005350495F545202
:1004D000414E534645523A2053656E64206275661C
:1004E000666572206E6F74206C6172676520656E40
:1004F0006F756768005350495F5452414E534645EB
:10050000523A20556E6B6E6F776E20646576696324
:10051000654964207370656369666965643A2000A3
:100520004E6F7420656E6F7567682064617461201A
:10053000696E20535049206D657373616765005380
:100540005049206E6F7420656E61626C65642E0088
:100550005350492E656E642829004572726F7220CF
:10056000696E2044485420636F6D6D616E643A205B
:100570004E6F7420656E6F75676820706172616D73
:100580006574657273004572726F7220696E2053D4
:100590006F6E617220636F6D6D616E643A204E6F95
:1005A0007420656E6F75676820706172616D657427
:1005B000657273004572726F7220696E2042557ABF
:1005C0007A657220636F6D6D616E643A204E6F7450
:1005D00020656E6F75676820706172616D65746506
:1005E000727320666F722062757A7A657220746FFA
:1005F0006E65004572726F7220696E2042757A7A5C
:10060000657220636F6D6D616E643A204E6F742069
:10061000656E6F75676820706172616D6574657273
:100620007300556E6B6E6F776E2070696E206D6F04
:10063000646500556E68616E646C656420737973DF
:10064000657820636F6D6D616E640043616E6E6FDF
:1006500074206368616E67652070696E206E756DC9
:10066000626572207768696C65206163746976657C
:1006700000496E76616C69642070696E206E756DDC
:1006800062657220666F72206672657175656E6351
:100690007920636F6D6D616E64004932433A205476
:1006A0006F6F206D616E7920627974657320726559
:1006B00063656976656400746F6F206D616E792083
:1006C000717565726965730031302D6269742061DE
:1006D000646472657373696E67206E6F74207375DE
:1006E00070706F7274656400537065636966792019
:1006F00073657269616C20525820616E6420545891
:100700002070696E730000002100240027002A0079
:100710002D003000330001010000040107010A012F
:1007200000000A0B02090C0D0E080703040100006B
:1007300000000000000000000000000000000000B9
:100740000000000000000000000000001211100076
:100750000000000000000000000000000000000099
:1007600000000000000002426F6F74696E67206431
:1007700065766963652E205374616E642062792EFC
:100780002E2E0044697363617264696E6720696E1E
:10079000707574206D6573736167652C206F757457
:1007A000206F662062756666657200000020002377
:1007B00000260029002C002F003200000100000359
:1007C000010601090100002200250028002B002E4F
:1007D000003100340002010000050108010B010591
:1007E000050505070508080808020202020A0A08AA
:1007F00008040404040101010101010101030303D0
:100800000303030303040707070C0C0C0C0C0C0C6C
:100810000C0202020206060606060606060B0B0B73
:100820000B0B0B0B0B0102102020080810204010AE
:1008300020408002010201080402010102040810A4
:1008400020408080402010080402018004020180C2
:1008500040201008040201080402010102040810EB
:10086000204080010204081020408000F430112450
:100870001FBECFEFD1E2DEBFCDBF00E00CBF13E063
:10088000A0E0B2E0ECE7F4E700E00BBF02C00790A5
:100890000D92AA36B107D9F72AE0AAE6B3E001C063
:1008A0001D92AB38B207E1F714E0C7E3D4E000E0F3
:1008B00006C021970109802FFE010E941738C63318
:1008C000D10780E00807A9F70E9449330C943C3A0D
:1008D0000C940000A091B307B091B407ED91FC9186
:1008E00011970190F081E02D682FCD011994282FE8
:1008F00030E02D54384FF901E45BFF4F90819F3772
:1009000069F02E563F4FD9011C926083E091930805
:10091000F0919408309711F070E019940895809147
:10092000B3079091B407DC01ED91FC910190F08147
:10093000E02D60EF1994CF93DF93C3EBD7E088816C
:100940009981DC01ED91FC910190F081E02D67EF40
:10095000199588819981DC01ED91FC910680F781E0
:10096000E02DDF91CF9119940F931F93CF93DF93D5
:10097000EC0103EB17E0D8018D919C916C2F6F7700
:10098000DC01ED91FC910190F081E02D1995F801C9
:1009900080819181CC0FCD2FCC1FDD0B6C2F6F7719
:1009A000DC01ED91FC910190F081E02DDF91CF9180
:1009B0001F910F911994CF92DF92EF92FF926B01EA
:1009C0007C01862F8F770E946A04D701C60127E039
:1009D000B695A795979587952A95D1F78F770E9419
:1009E0006A04D701C6013EE0B695A795979587950D
:1009F0003A95D1F78F770E946A04D701C60145E185
:100A0000B695A795979587954A95D1F78F770E94C8
:100A10006A04D701C6015CE1B695A79597958795BD
:100A20005A95D1F7FF90EF90DF90CF900C946A0425
:100A3000CF93DF93C3EBD7E088819981DC01ED91FF
:100A4000FC910190F081E02D69EF199588819981E1
:100A5000DC01ED91FC910190F081E02D62E01995AF
:100A600088819981DC01ED91FC910190F081E02D6C
:100A700066E0DF91CF911994CF92DF92EF92FF92CF
:100A8000CF93DF93EC016A017B01E889F98982E069
:100A90008083C11481EED806E104F104A1F060E086
:100AA00079E08DE390E0A70196010E941E37215066
:100AB00031094109510956954795379527952115D3
:100AC00080E1380798F0E889F989108260E874E8D5
:100AD0008EE190E0A70196010E941E372150310956
:100AE000410951095695479537952795EC85FD8520
:100AF0003083EE85FF852083188EEC89FD8986E0A2
:100B00008083EA89FB89808180618083EA89FB890F
:100B1000808188608083EA89FB8980818068808306
:100B2000EA89FB8980818F7D8083DF91CF91FF905F
:100B3000EF90DF90CF900895E0914809E53158F4A7
:100B400021E02E0F20934809F0E0EE0FFF1FE25E38
:100B5000F64F91838083089581E080938B081092F3
:100B6000B9071092BA071092BB07ECEBF7E01192AD
:100B700087E0EC3FF807D9F71092FC071092FE07C8
:100B80001092FD07E0919708F0919808309709F0CE
:100B9000199510928B080895CF93DF93EB01A091E4
:100BA000B307B091B4078F70682F606EED91FC9120
:100BB00011970190F081E02DCD011995CE01DF91C3
:100BC000CF910C94B404CF93DF9300D0CDB7DEB7B0
:100BD0008F7080698983862F8F778A83660F672F4E
:100BE000661F770B6B838091B3079091B407DC018C
:100BF000ED91FC910280F381E02D43E050E0BE01D5
:100C00006F5F7F4F19950F900F900F90DF91CF91ED
:100C10000895AF92BF92CF92DF92EF92FF920F931F
:100C20001F93CF93DF936C017B018B01040F151F82
:100C3000EB015E01AE18BF08C017D10759F06991EA
:100C4000D601ED91FC910190F081E02DC60119953E
:100C5000892B79F7C501DF91CF911F910F91FF90FB
:100C6000EF90DF90CF90BF90AF900895FC01A089E6
:100C7000B1898C91A689B78982FD0FC09C91818D25
:100C80008F5F8F73228D821749F0A18DAE0FBF2F1A
:100C9000B11D5D969C93818F08958C910895FC0100
:100CA000538D448D252F30E0842F90E0821B930BD1
:100CB000541710F0CF96089501970895FC01918D77
:100CC000828D981761F0A28DAE0FBF2FB11D5D967A
:100CD0008C91928D9F5F9F73928F90E008958FEF1C
:100CE0009FEF0895FC01918D828D981731F0828DD0
:100CF000E80FF11D858D90E008958FEF9FEF089527
:100D0000FC01918D228D892F90E0805C9F4F821B8A
:100D100091098F739927089589E295E00E948006D2
:100D200021E0892B09F420E0822F089586EC95E0DC
:100D30000E94800621E0892B09F420E0822F08958B
:100D400083E696E00E94800621E0892B09F420E0EA
:100D5000822F089580E097E00E94800621E0892B91
:100D600009F420E0822F0895FC01A48DA80FB92F6B
:100D7000B11DA35ABF4F2C91848D90E001968F73C3
:100D80009927848FA689B7892C93A089B1898C91E2
:100D9000837080648C93938D848D981306C0028831
:100DA000F389E02D80818F7D80830895EF92FF92FB
:100DB0000F931F93CF93DF93EC0181E0888F9B8D7E
:100DC0008C8D98131AC0E889F989808185FF15C038
:100DD0009FB7F894EE89FF896083E889F98980815B
:100DE0008370806480839FBF81E090E0DF91CF912A
:100DF0001F910F91FF90EF900895F62E0B8D10E04C
:100E00000F5F1F4F0F731127E02E8C8D8E110CC0BA
:100E10000FB607FCFACFE889F989808185FFF5CF05
:100E2000CE010E94B406F1CFEB8DEC0FFD2FF11D2A
:100E3000E35AFF4FF0829FB7F8940B8FEA89FB8942
:100E400080818062CFCF0F931F93CF93DF938C016C
:100E5000D0E0C0E0F801EC0FFD1F6491662341F083
:100E600080E097E00E94D606892B11F02196F2CF00
:100E7000CE01DF91CF911F910F910895CF93DF9312
:100E8000EC01888D8823B9F0AA89BB89E889F989A2
:100E90008C9185FD03C0808186FD0DC00FB607FCD7
:100EA000F7CF8C9185FFF2CF808185FFEDCFCE010A
:100EB0000E94B406E9CFDF91CF91089580E090E0E1
:100EC000892B29F00E94AA0681110E94000080E06F
:100ED00090E0892B29F00E94A00681110E94000059
:100EE00080E090E0892B29F00E94960681110E94F3
:100EF000000080E090E0892B29F00E948C0681118F
:100F00000C94000008958150823108F05AC0E82FF7
:100F1000F0E08827E157F84F8F4F0C941738AF0750
:100F2000B307A107A707AB07E107B607BC07C007D0
:100F3000C607CA07CE07D407D807E107DC07E207D0
:100F4000E607809180008F778093800008958091DC
:100F500080008F7DF9CF80918000877FF5CF84B5A9
:100F60008F7784BD089584B58F7DFBCF8091B000CD
:100F70008F778093B00008958091B0008F7DF9CF76
:100F8000809190008F7780939000089580919000D9
:100F90008F7DF9CF80919000877FF5CF8091A00061
:100FA0008F778093A00008958091A0008F7DF9CF66
:100FB0008091A000877FF5CF809120018F7780936B
:100FC00020010895809120018F7DF9CF809120012B
:100FD000877FF5CFCF93DF93282F30E0F901E05ED4
:100FE000F84F8491F901EB5DF74FD491F901E1528B
:100FF000F84FC491CC23A1F081110E948307EC2FFC
:10100000F0E0EE0FFF1FE555F84FA591B491EC917C
:10101000ED2381E090E009F480E0DF91CF91089525
:1010200080E090E0FACF1F93CF93DF93282F30E03A
:10103000F901E05EF84F8491F901EB5DF74FD4912F
:10104000F901E152F84FC491CC23A9F0162F811178
:101050000E948307EC2FF0E0EE0FFF1FEB53F84FD9
:10106000A591B4918FB7F894EC91111108C0D09567
:10107000DE23DC938FBFDF91CF911F910895DE2B8C
:10108000F8CF9091100289130DC0E6E6F7E0E491E5
:101090009FEF90931002E230E1F038F4EE2381F0FC
:1010A000E13089F060E00C941308E43049F110F16C
:1010B000E530C1F7909173009D7F90937300F2CF5C
:1010C00010926E00EFCF90916F009D7F90936F0014
:1010D000E9CF909170009D7F9093700091E0909384
:1010E000B0009091B100987F94609093B1001092FD
:1010F000B300D8CF909171009D7F90937100D2CFB3
:10110000909172009D7F90937200CCCFCF93DF932C
:1011100090E0FC01EB5DF74F24918152984FFC0168
:1011200084918823C9F090E0880F991FFC01EA5F41
:10113000F84FA591B491FC01EB53F84FC591D491B0
:1011400061110DC09FB7F8948C91209582238C93E8
:101150008881282328839FBFDF91CF910895623033
:1011600051F49FB7F8943C91822F809583238C9300
:10117000E8812E2BEFCF8FB7F894EC912E2B2C9388
:101180008FBFEACF863308F0865320917B00982FDB
:101190009870277F922B90937B0087708064809358
:1011A0007C0080917A00806480937A0080917A003C
:1011B00086FDFCCF809178009091790008953FB72B
:1011C000F8948091CE049091CF04A091D004B09176
:1011D000D10426B5A89B05C02F3F19F00196A11D8B
:1011E000B11D3FBFBA2FA92F982F8827BC01CD0171
:1011F000620F711D811D911D42E0660F771F881FD0
:10120000991F4A95D1F708958F929F92AF92BF92FE
:10121000CF92DF92EF92FF926B017C010E94DF0878
:101220004B015C01C114D104E104F104B9F00E9446
:10123000DF08681979098A099B09683E73408105AE
:10124000910580F321E0C21AD108E108F10888EE87
:10125000880E83E0981EA11CB11CE4CFFF90EF9094
:10126000DF90CF90BF90AF909F908F9008952FB751
:10127000F8946091CA047091CB048091CC04909151
:10128000CD042FBF08958F929F92AF92BF92CF92BD
:10129000DF92EF92FF92CF93C82F0E9437094B0144
:1012A0005C01F894C090A907D090AA07E090AB0722
:1012B000F090AC0778940E948F048DE70E946A0436
:1012C00082E00E946A048C2F0E946A04C501B40166
:1012D0000E94DB04C701B6010E94DB04CF91FF909E
:1012E000EF90DF90CF90BF90AF909F908F900C9435
:1012F0009B04282F30E0883080F4F9018827EC57D0
:10130000F64F8F4F0C9417389D099F098C09970948
:1013100099099B09A109A309E898220F331FF90134
:10132000E050FE4F85EA99E0918380830895E99823
:10133000F4CFEA98F2CFEB98F0CFEC98EECFED989F
:10134000ECCFEE98EACFEF98E8CF0895DF92EF92D6
:10135000FF920F931F93CF93DF93EC01D62E7A0168
:1013600089018881803308F067C061E08D2D0E947B
:1013700086088881282F30E0F901EE0FFF1FE20F69
:10138000F31FE75CFB4F9D2D9F736081607C692B91
:10139000608320E232E02E193F0937FF02C02D5F43
:1013A0003F4F3595279535952795298320E639E0D8
:1013B000201B310B37FF02C02D5F3F4F359527951E
:1013C000359527952A832CE0622F0E94E337829F70
:1013D000B001112430E020E0AB01420F531FFA01AD
:1013E000EE0FFF1FE40FF51FE75CFB4F908196FDAA
:1013F00016C02F5F3F4F2C30310571F7813029F532
:101400001092800082E080938100109285001092FB
:101410008400B19A80916F00826080936F00E881B0
:101420008E2F90E0FC01EE0FFF1FE80FF91FE75C25
:10143000FB4F8081806480838881DF91CF911F91F1
:101440000F91FF90EF90DF900895823061F4109239
:10145000900080939100109295001092940088BBA8
:1014600080937100DCCF833069F41092A00082E099
:101470008093A1001092A5001092A40089BB8093D4
:101480007200CDCF8111CBCF1092200182E08093EA
:10149000210110922501109224018ABB80937300D0
:1014A000BECFAF92BF92CF92DF92EF92FF920F9397
:1014B0001F93CF93DF936B017A01EC01CB5CDB4F81
:1014C00028813CE0389F8001399F100D1124A090A5
:1014D0003404B12C27FF1FC0FB01118210828881C8
:1014E0008F5F888388819801280F311D87FD3A9589
:1014F000F6012A153B051CF488818C30C4F18081EB
:101500009181049680349C4908F473C0F60180816F
:101510009181049670C088819801280F311D87FD44
:101520003A952A153B05DCF68881A801480F511D24
:1015300087FD5A95FA01EE0FFF1FE40FF51FE75CD8
:10154000FB4F808186FFCBCF8881F801E80FF11D2A
:1015500087FDFA95CF01EE0FFF1FE80FF91FE75C3B
:10156000FB4F808160E08F730E941308B8CF8081A9
:1015700091812881A801420F511D27FD5A959A019A
:10158000FA01EE0FFF1FE20FF31FE75CFB4F218113
:101590003281820F931FF7019183808388819801A4
:1015A000280F311D87FD3A95F901EE0FFF1FE20F5D
:1015B000F31FE75CFB4F808186FF22C08881080F04
:1015C000111D87FD1A95F801EE0FFF1FE00FF11FA7
:1015D000E75CFB4F808161E08F73DF91CF911F91BA
:1015E0000F91FF90EF90DF90CF90BF90AF900C9451
:1015F000130880E49CE9F701918380838FEF88834F
:10160000DF91CF911F910F91FF90EF90DF90CF90DE
:10161000BF90AF9008950F931F93CF93DF93EC018A
:101620008A81882321F061E088810E94860860E039
:1016300088810E94130883E090E00197F1F761E050
:1016400088810E94130883E290E00197F1F760E03F
:1016500088810E9413088A81882321F060E08881B4
:101660000E9486080E94DF086B837C838D839E83A3
:1016700089810E94EA07892B99F40E94DF080B8177
:101680001C812D813E81601B710B820B930B0F819E
:10169000188529853A85061717072807390740F75F
:1016A0000E94DF086B837C838D839E8389810E94E7
:1016B000EA07892B99F00E94DF080B811C812D819C
:1016C0003E81601B710B820B930B0F81188529855E
:1016D0003A85061717072807390740F70E94DF08E1
:1016E0002B813C81CB01821B930BDF91CF911F910A
:1016F0000F910895CF92DF92EF92FF92CF93DF93F5
:10170000DC011796CC911797D0E06111DC2F189669
:101710002C91189730E0220F331F2555384F50E099
:1017200040E0F90185919491FC01F080BA0190E0CC
:1017300080E0EF2DEC23ED1310C04F5F5F4F1D963F
:10174000CD90DD90ED90FC9050976C157D058E0549
:101750009F0538F36FEF7FEFCB01DF91CF91FF90C3
:10176000EF90DF90CF9008958F929F92AF92BF92AB
:10177000CF92DF92EF92FF920F931F93CF93DF935D
:10178000CDB7DEB7C054D1400FB6F894DEBF0FBE60
:10179000CDBF8C010E943709F801C184D284E38453
:1017A000F4849B01AC012C193D094E095F096901C4
:1017B0007A0130EDC31637E0D306E104F104A8F452
:1017C0008189C05CDE4F0FB6F894DEBF0FBECDBF7F
:1017D000DF91CF911F910F91FF90EF90DF90CF900D
:1017E000BF90AF909F908F90089561877287838795
:1017F00094871482138212821182108262E08581A2
:101800000E94860861E070E080E090E00E94040998
:1018100061E0F80185810E94860860E0F801858119
:101820000E941308F80186818551823028F58BE2E9
:1018300091E10197F1F762E0F80185810E94860845
:10184000F801828990E08230910538F0880F991F65
:10185000880F991F05970197F1F7F89460E0C80188
:101860000E947A0B6F3F7F4F8F4F9F4F61F4F801BB
:10187000118A789480E0A5CF64E170E080E090E088
:101880000E940409D8CF61E0C8010E947A0B6F3F23
:101890007F4F8F4F9F4F59F39E012F5F3F4F79012D
:1018A0005E013FEBA31A3EEFB30A670160E0C80197
:1018B0000E947A0BF601608371838283938361E0D7
:1018C000C8010E947A0BF60164837583868397832F
:1018D000F8E0CF0ED11CCA14DB0441F7789430E055
:1018E00020E0F70180809180A280B38044815581FF
:1018F00066817781FFEF8F169F06AF06BF0631F036
:101900004F3F8FEF58076807780719F4F801118ADD
:10191000B1CFF90183E0F595E7958A95E1F7E00FFE
:10192000F11F8081880F84169506A606B706F0F091
:1019300080832F5F3F4FF8E0EF0EF11C2832310516
:1019400081F6F801448120818181280F3327331FDC
:101950008281280F311D8381820F932F911D99273A
:101960004817190699F681E0818B2BCF8160E0CF73
:1019700020913204309133042817390771F4909183
:10198000310480913004981741F0E0913104F0E087
:10199000E051FC4F808190E008958FEF9FEF089514
:1019A0000895EF92FF920F931F93CF93DF93DC0183
:1019B0005C96ED90FC905D97E114F10479F481E080
:1019C00090E013969C938E93129790E080E0DF91C5
:1019D000CF911F910F91FF90EF9008955196ED9147
:1019E000FC91529750968C915097982F90950FB7E5
:1019F0005E962C915E97122F127021FD6095F894DF
:101A00002081112319F1282B2083E7012197F1F779
:101A100028E0462F50E0308160FF1AC0382B308319
:101A2000E7012197F1F7BA0175956795215089F77C
:101A3000112381F08081892380830FBF5C968D9173
:101A40009C910197F1F781E090E0C1CF2923DCCF91
:101A50003923E5CF9081892BEFCF2091320430914B
:101A600033042817390761F4809130042091310440
:101A700090E0805C9F4F821B91098F739927089596
:101A800090E080E0089520913204309133042817CB
:101A90003907B9F49091310480913004981789F096
:101AA000E0913104F0E0E051FC4F8081209131045D
:101AB00030E02F5F3F4F2F7333272093310490E0A6
:101AC00008958FEF9FEF0895E0913204F091330471
:101AD000E817F90769F4A389B4899C9185898095F1
:101AE00089238C93109233041092320481E008957C
:101AF00080E00895CF93DF93EC018A8D9B8D892B35
:101B000001F180913204909133048C179D07C9F044
:101B1000009711F00E94640D8E8D8E7F8E8F109233
:101B2000300410923104D0933304C0933204EB8913
:101B3000FC8980819D89892B808381E0DF91CF9111
:101B4000089580E0FBCF2091CB03260F3327331F6E
:101B500021323105ECF42091FF04FC0190E080E09B
:101B6000243069F082E00895A091CB032191AC016B
:101B700047555C4FA40FB52FB11D2C9301968617C6
:101B800098F38091CB03680F6093CB0380E00895B6
:101B900081E00895ECEBF0E080818A7B808360E057
:101BA00084E10E94130860E085E10C941308109210
:101BB000FF0481E08093FE041092D90461E084E187
:101BC0000E94130861E085E10E941308E9EBF0E050
:101BD00080818E7F808380818D7F808388E4809365
:101BE000B80085E48093BC000895CF93DF9391E023
:101BF0009093A803882361F0C091B800D091BA00F7
:101C00000E94CA0D0E94D70DD093BA00C093B800AD
:101C1000DF91CF9108958F929F92AF92BF92CF9212
:101C2000DF92EF92FF920F931F93CF93DF93D091A8
:101C30002805D13208F0D7C0182FC09127050E947F
:101C4000DF086B017C018091FF0481116BC082E091
:101C50008093FF041093FE048FEF8093FD04109295
:101C6000FC04D093FB04A7E0B5E0EBEDF4E080E0EA
:101C7000D81391C01092DA048091DA04CC0FC82BEB
:101C8000C093DA048091D904813009F088C01092A1
:101C9000D9040E94DF086B017C018091DA048093F3
:101CA000BB008091010590910205A0910305B091C0
:101CB0000405892B8A2B8B2BA1F00E94DF08009151
:101CC00001051091020520910305309104056C195E
:101CD0007D098E099F09061717072807390708F499
:101CE00042C08091BC0083FDD8CF85EC8093BC00BE
:101CF0000E94DF086B017C018091FF04823009F4AF
:101D000050C08091FD048F3F09F46FC08091FD04A5
:101D1000803209F46CC08091FD04803309F469C0FD
:101D200084E026C08091010590910205A0910305F1
:101D3000B0910405892B8A2B8B2B09F484CF0E9448
:101D4000DF088090010590900205A0900305B090F7
:101D500004056C197D098E099F0986169706A80649
:101D6000B90608F070CF809100050E94F50D85E05E
:101D7000109206051092280510920505DF91CF916B
:101D80001F910F91FF90EF90DF90CF90BF90AF9099
:101D90009F908F9008959D9191938F5F69CF85EE6D
:101DA000A5CF8091010590910205A0910305B09106
:101DB0000405892B8A2B8B2B09F49ECF0E94DF0808
:101DC0000091010510910205209103053091040551
:101DD0006C197D098E099F0906171707280739070F
:101DE00008F08ACFC0CF81E0C3CF80E0C1CF82E0CE
:101DF000BFCF83E0BDCF08950895E091A703809100
:101E0000A603E81730F4F0E0EA57FC4F808190E039
:101E100008958FEF9FEF08959091A7038091A603F7
:101E20002FEF3FEF981748F4E92FF0E0EA57FC4F07
:101E3000208130E09F5F9093A703C90108958091AE
:101E4000A6039091A703891B990B0895CF92DF9267
:101E5000EF92FF920F931F93CF93DF937C01CB01FF
:101E60008A0120910505222389F0EB016B01C40E44
:101E7000D51ECC15DD0569F06991D701ED91FC9176
:101E80000190F081E02DC7011995F3CF642F0E94D6
:101E9000A30DC801DF91CF911F910F91FF90EF909B
:101EA000DF90CF900895CF93DF931F92CDB7DEB729
:101EB0006983209105052223F9F02091280520321D
:101EC00058F021E030E0FC013383228390E080E091
:101ED0000F90DF91CF91089580910605E82FF0E0F3
:101EE000E95FFA4F998190838F5F80930605809315
:101EF000280581E090E0ECCF61E0CE0101960E94E0
:101F0000A30DF7CF90E080E0089508959C01615003
:101F10006B3058F5E62FF0E08827EE56F04F8F4FE4
:101F20000C9417389D0FA00FA30FB50FB50FB50F69
:101F3000B50FA60FAC0FAF0FB20F83E696E0089572
:101F400086EC95E0089589E295E0089529583F4F81
:101F5000F90180819181089527583F4FF9CF255885
:101F60003F4FF6CF23583F4FF3CF90E080E00895E6
:101F70002F923F924F925F926F927F928F929F9299
:101F8000AF92BF92CF92DF92EF92FF920F931F9387
:101F9000CF93DF9300D01F92CDB7DEB7DC019296CE
:101FA0002C9127FDFBC09C838B830E9437094B013A
:101FB0005C011A82BA818B2F90E0EB81FC8122A117
:101FC000022E000C330B281739070CF4E7C08E0FD4
:101FD0009F1FDC011296BC91B9836B2FCF010E9429
:101FE000860F7C01892B09F4C2C0E981E83040F0FA
:101FF0008091320490913304E816F90609F0B7C0D5
:10200000F981CF2ED12CF6013596EE0FFF1F2B81D3
:102010003C81E20FF31F00811181D701ED91FC910A
:102020000084F185E02DC7011995181619060CF0EA
:102030009EC0EB81FC81EC0DFD1DED5AFF4FA08190
:102040003601660C771CA11149C080EF0E946A041A
:1020500080E60E946A04898180640E946A040115F6
:10206000110559F0D701ED91FC910084F185E02D27
:10207000C7011995081719074CF0D701ED91FC918C
:102080000084F185E02DC70119958C01EB81FC815D
:102090006E0E7F1EF301E15AFF4F80819181801BFC
:1020A000910B97FD74C091838083101611060CF07C
:1020B00071C0D701ED91FC910284F385E02DC70139
:1020C0001995D82E8F770E946A048D2D881F882736
:1020D000881F0E946A0401501109E7CFEB81FC813F
:1020E000E60DF71DE15AFF4F2081318112161306CC
:1020F000F4F4F601EE0FFF1FEE0FFF1F4B815C8122
:10210000E40FF51F23A034A045A056A0B501A401FB
:1021100042195309640975091A012B014A2F50E02D
:1021200070E060E0241635064606570650F50115A6
:10213000110509F58033910524F528173907BCF4FA
:1021400020E0CC0CDD1CCC0CDD1CEB81FC81EC0D0B
:10215000FD1D83A294A2A5A2B6A2EB81FC81E60D8F
:10216000F71DE15AFF4F9183808321116ECFBA8111
:10217000BF5FBA831FCF10161106FCF680179107B8
:10218000E4F2281739070CF060CF21E0DACF118292
:1021900010828BCF87EF0E946A04E9CF0F900F90D7
:1021A0000F900F90DF91CF911F910F91FF90EF90C3
:1021B000DF90CF90BF90AF909F908F907F906F9067
:1021C0005F904F903F902F900895CF9382EF860FAE
:1021D0008630B8F4C62F8AE00E946A0482E0C331D8
:1021E00069F083E0C23151F084E0C13139F085E01B
:1021F000C03121F087E0CF3009F486E0CF910C9414
:102200006A04CF91089581E04A30510509F080E0D9
:1022100008950895FC01E65BFF4F2081222331F0F1
:102220001082855B9F4F2FEFFC012083089564513E
:10223000623030F486E00E946A0481E00C946A0403
:1022400008959C018CEE860F8230B0F44630510523
:10225000A9F0D901A65BBF4F8C91882371F0E62FBE
:10226000F0E0E150F84F8081863031F41C92255B1C
:102270003F4F8FEFF901808380E0089581E008955A
:102280000895CF93DF93FC012281338137FD13C082
:10229000EC012230310591F02330310589F0C9017C
:1022A0004297049720F487E1821B0E9479098FEFFF
:1022B0009FEF9B838A83DF91CF91089580E0F5CFD4
:1022C00081E0F3CF90E080E0623061F081E090E067
:1022D000633041F08EEE860F843078F487E190E031
:1022E000861B91096250643458F4019649F080E1EC
:1022F0000E946A0480E00C946A048FEF9FEFF2CF93
:102300000895CF93DF9330E020E0623061F021E068
:1023100030E0633041F02EEE260F2430F0F427E158
:1023200030E0261B31097EEF760F7434A0F42F3F86
:10233000320789F04031510599F0FC014281538107
:102340006417150641F4EC01822F0E9479098FEF82
:102350009FEF9B838A8380E004C02FEF3FEFE3CFA2
:1023600081E0DF91CF910895CF92DF92EF92FF92BB
:10237000CF93DF93EC010E9437096B01770FEE08D2
:10238000FF0888859985AA85BB85C816D906EA06FF
:10239000FB066CF04C815D816E817F81840F951FFF
:1023A000A61FB71F8C159D05AE05BF054CF48A818D
:1023B0009B8197FF0E944309C886D986EA86FB86DF
:1023C000DF91CF91FF90EF90DF90CF9008958091B3
:1023D000A9079091AA07A091AB07B091AC0701960D
:1023E000A11DB11D8093A9079093AA07A093AB07E5
:1023F000B093AC070895CF93DF93EC010E943709A7
:102400006E837F838887998783E190E09B878A87A3
:10241000DF91CF9108956A37C1F44230B0F0F901ED
:102420004181F0E84F9FA0011124F9012081240F80
:10243000352F311D2115310529F0FC013387228705
:1024400081E0089521E030E0F8CF80E0089580E059
:102450000895089508950F931F93CF93DF938C01F0
:10246000D62FC0E0D8019C968C91C81798F4EC2F19
:10247000F0E03196EE0FFF1FE00FF11F8081918198
:10248000DC01ED91FC910084F185E02D6D2F199513
:10249000CF5FE8CFDF91CF911F910F9108950F93F8
:1024A0001F93CF938C01C0E0D8019C968C91C817E4
:1024B00090F4EC2FF0E03196EE0FFF1FE00FF11FCC
:1024C00080819181DC01ED91FC910680F781E02D06
:1024D0001995CF5FE9CFCF911F910F910895CF93B9
:1024E000C0E08AEC8C0F62E0803128F08EEF8C0F18
:1024F000843420F461E08C2F0E947704CF5FC634CF
:1025000081F78CE199E0CF910C944F12DF92EF921A
:10251000FF920F931F93CF93DF93EC01E62ED42EFF
:1025200089018BE66817D1F1ADE66A1364C04423D4
:1025300009F47CC0F901C081C63408F077C080EF8F
:102540000E946A048EE60E946A048C2F0E946A042C
:10255000D0E0CD54D84FFE01E45BFF4F80810E9454
:102560006A04CE56DF4FC8818C2F8F770E946A0491
:102570008C2F90E0C7FF06C0880F892F881F990B0A
:102580000E946A0487EF0E946A0481E0DF91CF9184
:102590001F910F91FF90EF90DF90089580EF0E94C0
:1025A0006A048CE60E946A040FEF17E0F12CD80150
:1025B0008D918D018F37B9F0E12C8CA5E81698F438
:1025C000EE2DF0E03196EE0FFF1FEC0FFD1F808126
:1025D0009181DC01ED91FC910190F081E02D6F2D56
:1025E0001995E394EACF8FE70E946A04F394B6E466
:1025F000FB12DDCFC7CFF12C8CA5F816B8F4EF2D68
:10260000F0E03196EE0FFF1FEC0FFD1F80819181EE
:10261000DC01ED91FC910480F581E02D98014D2DB8
:102620006E2D19958111B2CFF394E6CF80E0AECF35
:10263000DF92EF92FF920F931F93CF93DF93EC0102
:10264000D62E8A01F12CE12C8CA5F816A8F4EF2DDA
:10265000F0E03196EE0FFF1FEC0FFD1F808191819E
:10266000DC01ED91FC910280F381E02DA8016D2D3C
:102670001995E82AF394E8CF8E2DDF91CF911F9121
:102680000F91FF90EF90DF900895089562506434A9
:1026900030F481E00E946A0481E00C946A04089599
:1026A000CF938EEF860F8434B0F44130510599F406
:1026B000E62FF0E0E150F84F80818F3761F0C62FB0
:1026C00060E08C2F0E94130861E08C2F0E94860826
:1026D00081E0CF91089580E0FCCF80E008951F93C2
:1026E000CF93DF939EEF980F943480F4C82FD0E0FF
:1026F000CD54D84FFE01E45BFF4F9081913031F40F
:10270000162F0E941308CE56DF4F1883DF91CF910A
:102710001F9108959F92AF92BF92CF92DF92EF9256
:10272000FF920F931F93CF93DF93893008F08BC0F4
:102730008F5FC82FCC0FCC0FCC0FAC2EC73410F04E
:1027400096E4A92ED62F88EFB82EBC0EEB2CF12CD8
:1027500010E001E08E2DEA1460F59EEF9E0D94349A
:10276000C8F4A7014D54584FFA01E45BFF4F208194
:10277000223080F4902F9D2399249394911101C0CD
:10278000912CBA016E567F4F6B01213041F4102B12
:10279000F6019082000FFFEFEF1AFF0ADBCF9923BB
:1027A000B9F3FB019081913099F362E00E948608B1
:1027B000EFCF10FF05C06D2F61708B2D0E941308A5
:1027C00011FF06C06D2F627089EF8C0F0E941308F5
:1027D00012FF06C06D2F64708AEF8C0F0E941308E1
:1027E00013FF06C06D2F68708BEF8C0F0E941308CB
:1027F00014FF06C06D2F60718CEF8C0F0E941308C0
:1028000015FF06C06D2F60728DEF8C0F0E941308AC
:1028100016FF06C06D2F60748EEF8C0F0E94130898
:1028200017FF11C06D2F60788FEF8C0FDF91CF9164
:102830001F910F91FF90EF90DF90CF90BF90AF90DE
:102840009F900C941308DF91CF911F910F91FF90EF
:10285000EF90DF90CF90BF90AF909F900895089534
:10286000FC0132960B961192118A1086E817F9072F
:10287000D1F708956250643460F480E00E946A04E5
:1028800081E00E946A048BE00E946A0481E00C945B
:102890006A040895CF932EEF260F243488F5E62F8F
:1028A000E695E695E695E80FF92FF11D8489962FB8
:1028B000977021E030E001C0220F9A95EAF74115A8
:1028C000510519F04B305105B9F4C62F282B248B34
:1028D000452B31F460E08C2F0E94860881E00AC00D
:1028E00062E08C2F0E948608EC2FF0E0EB5BF74F44
:1028F00081E08083CF91089520952823248BEECF0B
:1029000080E0F8CFDF92EF92FF920F931F93CF9367
:10291000DF93662309F47CC08C010E5F1F4F8FE1AB
:10292000089FD02C1124D0E0E12CF80181918F0177
:10293000882309F468C0F1888EEF8D0F843450F439
:10294000CF2DC170F0FE07C08D2F0E94EA07C1E0B5
:10295000892B09F4C0E08FEF8D0F843468F4F1FE09
:102960000BC08D2D800F880F880F880F87500E9415
:10297000EA07892B09F0C260F2FE07C082E08D0FE2
:102980000E94EA07892B09F0C460F3FE07C083E0C8
:102990008D0F0E94EA07892B09F0C860F4FE07C07A
:1029A00084E08D0F0E94EA07892B09F0C061F5FED3
:1029B00007C085E08D0F0E94EA07892B09F0C062ED
:1029C000D034A1F0F6FE07C086E08D0F0E94EA0722
:1029D000892B09F0C064DF3349F0F7FE07C087E0B8
:1029E0008D0F0E94EA07892B09F0C068F8018189E0
:1029F000C8238085C81739F06C2F70E08E2D0E9497
:102A0000E305F801C087E394D85FF9E0EF128DCFBA
:102A1000DF91CF911F910F91FF90EF90DF9008957C
:102A2000EF92FF920F931F93CF93DF93893008F0BB
:102A300071C0E090A008F090A108E80EF11CF70129
:102A40006283672B09F466C0082F1489D82FDD0F25
:102A5000DD0FDD0F8EEF8D0F843450F4C12FC17068
:102A600010FF07C08D2F0E94EA07C1E0892B09F4EF
:102A7000C0E08FEF8D0F843448F411FF07C081E070
:102A80008D0F0E94EA07892B09F0C26012FF07C070
:102A900082E08D0F0E94EA07892B09F0C46013FFC2
:102AA00007C083E08D0F0E94EA07892B09F0C860F8
:102AB00014FF07C084E08D0F0E94EA07892B09F0FC
:102AC000C06115FF07C085E08D0F0E94EA07892BC2
:102AD00009F0C062D034A1F016FF07C086E08D0F68
:102AE0000E94EA07892B09F0C064DF3349F017FF21
:102AF00007C087E08D0F0E94EA07892B09F0C068A4
:102B0000F7018489C8236C2F70E0802F0E94E305B1
:102B1000F701C387DF91CF911F910F91FF90EF9045
:102B200008958EEF860F8C3018F06C52633030F4BD
:102B300083E00E946A0488E00C946A040895FF927E
:102B40000F931F93CF93DF93F9016F3609F0F2C013
:102B5000423008F4EFC0F080C181D0E0423091F003
:102B6000828120E8829FC0011124C82BD92B4330D9
:102B700049F0838190E090E4899F902D882711246B
:102B8000C82BD92B0F2D10E0F801E150F84F8081B0
:102B90008250823008F035C061E08F2D0E94860897
:102BA000209729F460E08F2D0E9413082AC0CF3FA0
:102BB000D10511F461E0F7CFF801E05EF84FE49140
:102BC000E150E23108F0B1C0F0E08827E551FA4E5B
:102BD0008F4F0C941738FD150316081612161C1685
:102BE000951626162E16361640164A1654166316D5
:102BF0006D169516771681168B1684B5806884BD80
:102C0000C7BD81E098C084B5806284BDC8BDF9CFDE
:102C100080918000806880938000D0938900C09369
:102C20008800EFCF80918000806280938000D093F5
:102C30008B00C0938A00E5CF8091800088608093EC
:102C40008000D0938D00C0938C00DBCF8091B000CA
:102C500080688093B000C093B300D3CF8091B00060
:102C600080628093B000C093B400CBCF809190007D
:102C7000806880939000D0939900C0939800C1CF52
:102C800080919000806280939000D0939B00C093CD
:102C90009A00B7CF80919000886080939000D09385
:102CA0009D00C0939C00ADCF8091A0008068809370
:102CB000A0008091A0008F7B8093A000D093A900FA
:102CC000C093A8009ECF8091A00080628093A00056
:102CD000D093AB00C093AA0094CF8091A0008860ED
:102CE0008093A000D093AD00C093AC008ACF8091B8
:102CF0002001806880932001D0932901C09328018E
:102D000080CF80912001806280932001D0932B019D
:102D1000C0932A0176CF80912001886080932001A2
:102D2000D0932D01C0932C016CCFC038D1050CF08D
:102D300041CF38CF80E0DF91CF911F910F91FF906D
:102D400008950895EF92FF920F931F93CF936623F8
:102D500019F17C0103EB17E0CAECC031C0F4F801B3
:102D6000E45BFF4F8081823091F4F701828193818F
:102D70000C2E02C0959587950A94E2F780FF07C054
:102D80008C2F0E94C208BC018C2F0E94CC05CF5F03
:102D90000F5F1F4FC03109F7CF911F910F91FF9027
:102DA000EF900895FC01138212820895CF9380E082
:102DB0006936A1F480EF0E946A048AE60E946A04E0
:102DC000CAEC8C2FC03108F08FE70E946A04CF5FF5
:102DD000C031B9F787EF0E946A0481E0CF9108956E
:102DE0006653603130F482E00E946A048AE00C94F9
:102DF0006A040895CF938031B0F4E091AF07F09169
:102E0000B0074281538121E030E0082E02C0220F3A
:102E1000331F0A94E2F7672B41F420953095242361
:102E2000352333832283CF910895242B352B33838D
:102E3000228390918B089111F6CFC82F0E94C2086F
:102E4000BC018C2FCF910C94CC0508950895089562
:102E5000089508956250603330F484E00E946A045B
:102E60008EE00C946A04089581E008956250643401
:102E700030F48FE00E946A0480E40C946A040895A0
:102E80006253643030F48CE00E946A0481E00C9458
:102E90006A0408950895FC0101900020E9F7319734
:102EA000AF01481B590BBC0180E097E00C94090668
:102EB0000F931F93CF93DF930E948F048091B307EA
:102EC0009091B407DC01ED91FC910190F081E02D2F
:102ED00069E719958091B3079091B407DC01ED91F2
:102EE000FC910190F081E02D6091B70719958091D8
:102EF000B3079091B407DC01ED91FC910190F08152
:102F0000E02D6091B8071995A091B507B091B6076B
:102F1000ED0109900020E9F72197CA1BDB0B10E0B7
:102F200000E0C017D10779F0E091B507F091B6073E
:102F3000E00FF11F8081082E000C990B0E94B40451
:102F40000F5F1F4FEECFDF91CF911F910F910C9428
:102F50009B040F931F93CF93DF938091BC0781371E
:102F6000A9F0893709F053C08091B707882309F485
:102F70005EC08091B3079091B407892B09F457C0C4
:102F8000DF91CF911F910F910C94581700919908E0
:102F900010919A080115110509F449C02091FD0707
:102FA0003091FE07C901019797FDC9019595879555
:102FB000482F8823E1F1A3EBB7E0CCEBD7E030E07A
:102FC0001A965C911A975993BE01615071091B962C
:102FD0002C911B97279522272795250FFB012083EE
:102FE0003F5F1296341760F39927DC01AD54B84F58
:102FF00018968C911897882311F019961C928CEBD7
:1030000097E0F801DF91CF911F910F911994E09112
:103010009B08F0919C08309751F06091FD0761503A
:103020004DEB57E0DF91CF911F910F911994DF91F4
:10303000CF911F910F910895EF92FF920F931F93DD
:10304000CF93DF938C010E94C9357C0180918C085D
:10305000811107C0C8010E94230783E593E00E9405
:103060004B170E948F048091B3079091B407DC0145
:10307000ED91FC910190F081E02D61E71995D0E090
:10308000C0E0CE15DF054CF4F801EC0FFD1F849174
:1030900090E00E94B4042196F4CFDF91CF911F916C
:1030A0000F91FF90EF900C949B048F929F92AF92A0
:1030B000BF92EF92FF920F931F93CF93DF936D37E1
:1030C00009F0B8C0423060F481E0DF91CF911F91E8
:1030D0000F91FF90EF90BF90AF909F908F900895C9
:1030E000E901142F7C01888181111EC08981F701BB
:1030F000228133818217130621F037FD15C08F37E7
:1031000099F42230310579F12330310571F1C9018B
:103110004297049720F487E1821B0E9479098FEF80
:103120009FEFF70193838283153070F22881198114
:10313000123009F481C0133009F47EC08EEE810F85
:103140008430A8F487E190E0811B9109213009F0D7
:10315000BBCF163418F4019609F071C081E796E0F0
:103160000E941C18B1CF80E0D8CF81E0D6CF8FEF7E
:103170009FEFECCF133091F487EE91E1909303022F
:103180008093020280916A00837F220F331F220FF7
:10319000331F282B20936A00ED9A90C08EEE810F8A
:1031A000843008F08BC087E1811BE82FF0E0EE0F40
:1031B000FF1FE050FE4F47EE51E1518340838430C2
:1031C000C1F0853019F1833041F0809169008C7F26
:1031D000282B20936900E89A71C080916900837F51
:1031E000220F331F220F331F282B20936900E99AE7
:1031F00065C0809169008F7C44E0220F331F4A959F
:10320000E1F7282B20936900EA9A58C08091690061
:103210008F7396E0220F331F9A95E1F7282B2093A6
:103220006900EB9A4BC08C179D0709F452C08BE4E0
:1032300096E096CF80E049CF213009F045CF0A8152
:103240008C8120E8829FC00111242B81822B4C01AC
:10325000092E000CAA08BB08892B59F00E943709D7
:10326000F701608771878287938784829582A6821F
:10327000B782F70182819381C12FD0E08F3F9807F9
:1032800091F6025030E020E0043040F4E02FF0E00E
:10329000E95EFD4F2081022E000C330B123009F045
:1032A00069CF87EE91E190930102809300028091B3
:1032B0006A008C7F282B20936A00EC9AF701D38355
:1032C000C28360E0812F0E94860860E1812F0E9406
:1032D0007704CE010E944309F7CE9A01A091AD0771
:1032E000B091AE07ED91FC9111970480F581E02D2E
:1032F000462F682FCD011995811104C083E396E014
:103300000C941C180895CF93DF93EB01A091AD07A7
:10331000B091AE07ED91FC9111970280F381E02D01
:10332000AB01682FCD011995811109C0CF37D105A7
:1033300031F082E296E0DF91CF910C941C18DF917E
:10334000CF9108958F929F92AF92BF92CF92DF92CA
:10335000EF92FF92CF93613581F4F90183EF95E00D
:10336000423048F081819081913009F002C34630AB
:1033700030F484EB95E00E941C1880E04CC09281F0
:10338000438150E070E060E0C7E0440F551F661FC6
:10339000771FCA95D1F7C480D12CF12CE12C2EE0F7
:1033A000CC0CDD1CEE1CFF1C2A95D1F74C295D29A5
:1033B0006E297F29492BC580D12CF12CE12C35E1D8
:1033C000CC0CDD1CEE1CFF1C3A95D1F74C295D2975
:1033D0006E297F29C680D12CF12CE12CECE1CC0C9C
:1033E000DD1CEE1CFF1CEA95D1F7C42AD52AE62A7B
:1033F000F72A909110028917C1F09F3F09F481C00C
:103400000E948F0480E00E946A0480E00E946A04A7
:103410000E949B0481E0CF91FF90EF90DF90CF90CE
:10342000BF90AF909F908F900895E6E6F7E0C4912B
:10343000C7FDE6CF61E00E948608CC2319F0C230B8
:1034400009F0E2C1EE24FF2460E072E18AE790E037
:10345000A70196010E94FF3649015A01BA01A9014C
:1034600041505109610971094F3F510561057105CD
:1034700009F00CF4AEC160E472E48FE090E0A701C3
:1034800096010E94FF36BA01A90141505109610914
:103490007109C23009F023C182E04F3F5105610537
:1034A000710509F00CF460C160E970ED83E090E013
:1034B000A70196010E94FF36BA01A90141505109A6
:1034C0006109710983E04F3F51056105710509F0FC
:1034D0000CF44AC168E478EE81E090E0A70196011F
:1034E0000E94FF36BA01A9014150510961097109D1
:1034F0004F3F51056105710511F00CF046C184E0A4
:1035000033C180931002E6E6F7E0C4919C2FCF3FD1
:1035100009F476CFC23009F476C058F4CC2399F17F
:10352000C13009F44DC097FD6BCF61E00E94860861
:1035300086CFC43009F4B0C008F48BC0C53099F709
:103540001092200110922101909121019860909396
:10355000210190912101916090932101282F30E069
:10356000F901E152F84FE491F0E0EE0FFF1FEB5349
:10357000F84F45915491F901EB5DF74FE491E093D9
:103580006D03C5E057CF14BC15BC94B5926094BDD3
:1035900095B5916095BD282F30E0F901E152F84FC3
:1035A000E491F0E0EE0FFF1FEB53F84F459154917B
:1035B000F901EB5DF74FE491E0937103C0E03ACF7E
:1035C00010928000109281009091810098609093F9
:1035D000810090918100916090938100282F30E0CC
:1035E000F901E152F84FE491F0E0EE0FFF1FEB53C9
:1035F000F84F45915491F901EB5DF74FE491E09359
:103600007003C1E017CF1092B0001092B1009091FA
:10361000B00092609093B0009091B100916090934F
:10362000B100282F30E0F901E152F84FE491F0E0C9
:10363000EE0FFF1FEB53F84F459154915093D30475
:103640004093D204F901EB5DF74FE491E093D40489
:10365000F1CE10929000109291009091910098609C
:103660009093910090919100916090939100282FF8
:1036700030E0F901E152F84FE491F0E0EE0FFF1F66
:10368000EB53F84F45915491F901EB5DF74FE491FD
:10369000E0936F03C3E0CECE1092A0001092A10081
:1036A0009091A10098609093A1009091A1009160E9
:1036B0009093A100282F30E0F901E152F84FE491F6
:1036C000F0E0EE0FFF1FEB53F84F45915491F901D5
:1036D000EB5DF74FE491E0936E03C4E0ABCE4F3F58
:1036E00051056105710509F00CF48CC068E478EEB1
:1036F00081E090E0A70196010E94FF36BA01A9017E
:103700004150510961097109CC2309F44CC14F3F63
:1037100051056105710509F00CF4F1CE62E17AE71B
:1037200080E090E0A70196010E94FF36BA01A9014E
:103730004150510961097109CC2309F41DC186E08A
:103740004F3F51056105710579F070F0B501A40195
:103750008AE075956795579547958A95D1F74150B9
:1037600051096109710987E09091B100987F892B17
:103770008093B100C23009F4E9C00CF0E0C0CC2362
:1037800079F1C13009F03CCE6DC064E274EF80E0A5
:1037900090E0A70196010E94FF36BA01A9014150AD
:1037A00051096109710985E04F3F510561057105B6
:1037B000D9F2D0F262E17AE780E090E0A7019601C9
:1037C0000E94FF36BA01A9014150510961097109EE
:1037D000B6CF81E0C111C8CF95B5987F892B85BD43
:1037E00047BD8FEF9FEFDC018093820390938303AB
:1037F000A0938403B093850380916E0082608093D0
:103800006E00FECD82E0E6CFEE24FF2460E072E1A0
:103810008AE790E0A70196010E94FF36BA01A9014C
:10382000415051096109710991E04115510581E04B
:10383000680771057CF068E478EE81E090E0A7010C
:1038400096010E94FF36BA01A90141505109610950
:10385000710993E0C130D9F480918100887F892B70
:103860008093810050938900409388008FEF9FEFF1
:10387000DC0180937E0390937F03A0938003B09339
:10388000810380916F00826080936F00B9CDC33057
:10389000D9F480919100887F892B80939100509377
:1038A0009900409398008FEF9FEFDC0180937A039B
:1038B00090937B03A0937C03B0937D038091710070
:1038C0008260809371009CCDC430D9F48091A100B6
:1038D000887F892B8093A1005093A9004093A80072
:1038E0008FEF9FEFDC018093760390937703A09393
:1038F0007803B093790380917200826080937200A4
:103900007FCDC53009F036CF80912101887F892B8A
:103910008093210150932901409328018FEF9FEF5D
:10392000DC018093720390937303A0937403B093AC
:1039300075038091730082608093730061CDC43001
:1039400059F20CF4ACCFC53029F35ACD4093B300F3
:103950008FEF9FEFDC018093D5049093D604A09362
:10396000D704B093D8048091700082608093700077
:1039700047CD0E94410844CD84E04F3F5105610589
:10398000710509F008F428CFB501A4019AE07595F6
:103990006795579547959A95D1F741505109610917
:1039A000710985E019CF83E04F3F5105610571052D
:1039B00009F00CF411CFB2CEFC0112AE9FB7F8940F
:1039C00080916C03882319F0815080936C0380915F
:1039D0006C03811105C08CB58F7B8CBD10926B037D
:1039E0009FBF80E595E00C941C18FC0122AD2111CD
:1039F0000C94DC1C0895DC018EEC860F843090F46E
:103A00004C30510589F0DA968C91DA97882359F079
:103A1000E62FF0E0E150F84F80818C3019F4CD01B1
:103A20000E94DC1C80E0089581E008954F925F922F
:103A30006F927F928F929F92AF92BF92CF92DF92BE
:103A4000EF920F931F93CF93DF936C01D62F5A0100
:103A5000122F4F3F540709F492C081E0809305056F
:103A6000609327051092060510922805642F8DE9B2
:103A700097E00E94530F802F0E940B0EF601E45B2B
:103A8000FF4F808191818230910538F0880F991F16
:103A9000880F991F05970197F1F70E94DF082B0106
:103AA0003C018091FF0481116CC0C12F113208F0DC
:103AB000C0E281E08093FF048093FE049FEF909327
:103AC000FD041092FC049C0F9093FB048093DA0495
:103AD0009091DA048D2F880F892B8093DA048091DE
:103AE000D904813009F0A1C01092D9040E94DF08E6
:103AF0002B013C018091DA048093BB008091010589
:103B000090910205A0910305B0910405892B8A2BA1
:103B10008B2BA1F00E94DF08209101053091020556
:103B200040910305509104056419750986099709A8
:103B3000261737074807590708F444C08091BC008E
:103B400083FDD8CF85EC8093BC000E94DF082B0159
:103B50003C018091FF04813009F469C08091FC042C
:103B60008C1710F4C091FC04ABEDB4E0E6E8F3E090
:103B700080E08C1761F19D9191938F5FFACFA12C1A
:103B80008CCF8091010590910205A0910305B09121
:103B90000405892B8A2B8B2B09F483CF0E94DF0825
:103BA00020910105309102054091030550910405D3
:103BB00064197509860997092617370748075907B1
:103BC00008F06FCF809100050E94F50DC0E01092C3
:103BD000A703C093A603212F30E08C2F90E0281775
:103BE00039070CF046C08AE996E00E941C18F601DD
:103BF000A2A63601FBE26F0E711C912C812CA12E26
:103C0000B12C8A149B04DCF59091A6038091A70344
:103C10009817A9F18DE997E00E940C0F9FEF891A80
:103C2000990AF30181933F01ECCF85EE8CCF80910F
:103C3000010590910205A0910305B0910405892B1F
:103C40008A2B8B2B09F485CF0E94DF082091010578
:103C500030910205409103055091040564197509DE
:103C600086099709261737074807590708F071CFC3
:103C7000A9CF821793070CF0BACF1C2FB8CF0E94A0
:103C80008F0487E70E946A048D2F0E946A048E2D9C
:103C90000E946A04E601AA96D12CC12C899190E079
:103CA0000E94B404FFEFCF1ADF0AAC14BD04B4F7CE
:103CB000DF91CF911F910F91EF90DF90CF90BF9048
:103CC000AF909F908F907F906F905F904F900C94EB
:103CD0009B04CF92DF92EF92FF920F931F93CF93AB
:103CE000DF936C012BE4C20ED11CF601208127FD6D
:103CF00028C0EC0110E085E0F82E812F90E0F6015D
:103D00002081022E000C330B28173907D4F0F89EBF
:103D1000F001F99EF00D1124EC0FFD1F0196F89EA5
:103D2000D001F99EB00D1124AC0FBD1F4381548109
:103D3000E12C06812C916281CE010E94161D1F5F2D
:103D4000DCCFDF91CF911F910F91FF90EF90DF902B
:103D5000CF900895CF92DF92EF92FF920F931F932F
:103D6000CF93DF93E42EE901663729F0683709F431
:103D7000FBC010E01CC0FC01E65BFF4F108111236B
:103D8000B1F0398135FF05C088EC96E00E941C181F
:103D90000EC0688141E036FB002700F90427232F7D
:103DA0002871283009F43EC060F42223C9F0812F25
:103DB000DF91CF911F910F91FF90EF90DF90CF9007
:103DC0000895203109F44BC0283189F7EC01C55B17
:103DD000DF4F388113160CF481C08FEF8883E7CF53
:103DE000409305056093270510920605109228055B
:103DF00002E00E1578F4FE01E00FF11D6181679578
:103E0000662767958081680F8DE997E00E94530FC0
:103E10000E5FEFCF81E00E940B0E83E191E00197EE
:103E2000F1F7C5CF7A812B8146E0E41211C0A0E8FA
:103E30002A9FA0011124470F511D2D81279522276C
:103E400027957C81270F3770E32E0E94161DAFCF78
:103E5000279522272795270F4FEF5FEFF4CFFC011F
:103E6000E55BFF4F408147301CF087EB96E08ECF3B
:103E7000AA813B81B6E0EB122AC050E8359F900141
:103E80001124A20FB32FB11D3D81379533273795EC
:103E90002C81320F4F5F4083042E000C550B25E020
:103EA000249FF001259FF00D1124E80FF91F628374
:103EB000B483A3834F5F5F4F249FB001259F700D94
:103EC0001124860F971FDC013C93068370CF379532
:103ED000332737953A0FAFEFBFEFDCCF20E0E32E6B
:103EE000032E000CFF0875E0422F50E0E416F506A3
:103EF00064F0749FF001759FF00D1124E80FF91F15
:103F00004281641719F02F5FEFCF20E045E0622F68
:103F100070E0E616F7062CF1283008F5FB01319623
:103F20004E9FD0014F9FB00D1124A80FB91F1296BC
:103F30005C911297469FF001479FF00D11246F018D
:103F4000C80ED91EF601528313966D917C91149779
:103F5000748363835285558316965C9156832F5FD5
:103F6000D6CF3150388323CF2981B0E82B9FA001D1
:103F700011242881240F352F311D2115310529F0F9
:103F8000FC01E45BFF4F318320838C01065B1F4FF4
:103F9000F8018081811133C0D0E0C0E08C2F8451C2
:103FA000823070F4FE01E150F84F80818F3739F193
:103FB00066E08C2F0E94770466E08C2F0E948608B2
:103FC0002196C634D10551F781E0D8018C930E9427
:103FD000CA0D1092A7031092A60310920605109224
:103FE00028050E94D70D8BEF9EE09093CA03809323
:103FF000C9038CEF9EE09093CE038093CD03F8012C
:104000001081D5CECF9343305105C1F48EEF860F8A
:104010008C3020F084ED860F833080F4C62F61E071
:104020008C2F0E94860861E08C2F0E94860860E039
:104030008C2F0E94130881E0CF91089580E0FCCF7F
:10404000CF93DF93FC01DAECD60FD03158F5A28183
:10405000B38121E030E00D2E02C0220F331F0A94FD
:10406000E2F742305105C1F4C62F2A2B3B2B338394
:10407000228380918B08811107C08D2F0E94C20876
:10408000BC018D2F0E94CC0560E08C2F0E94860819
:1040900081E0DF91CF910895209530952A233B232D
:1040A0003383228380E0F5CF0C94BB380C94BB386B
:1040B0001F93CF93DF93EC0118E0612FCE010E9494
:1040C000860F009711F00E94BB381F5F1C30A9F7C4
:1040D0008FEF8AA3FE013A96CE018396DE01AD5A98
:1040E000BF4FAE014E5D5F4F11921192EC011992DC
:1040F000199219921992CE011D929F012D5A3F4F8C
:10410000E90119821882E417F50771F7DF91CF9161
:104110001F9108950C94BB380C94BB380C94BB3899
:104120000C94BB380C94BB380C94BB380C94BB3843
:104130000C94BB380C94BB380C94BB380C94BB3833
:104140000C94BB38CF93DF93C62FD0E0CC0FDD1F8C
:10415000C80FD91FBA91AA911097A1F0EC912E2FF8
:1041600030E0F901EE0FFF1FE20FF31FE75CFB4F9A
:10417000908196FF02C09F7B9083CD010E94BB3847
:1041800019821882DF91CF9108950F931F93CF93D7
:104190008C01C0E08EEF8C0F803320F46C2FC801AF
:1041A0000E94A220CF5FC634A9F7CF911F910F9133
:1041B0000895CF93DF93EC018E819F81009721F0CA
:1041C0000E94BB381F821E82DF91CF910895CF934A
:1041D000DF93FC012281222341F0EC01858196814D
:1041E0000E94BB381E821D821A82DF91CF910895F2
:1041F000CF93DF93EC016250643470F481E04F3070
:10420000510559F08A81882341F08D819E810E9459
:10421000BB381E821D821A8280E0DF91CF91089503
:104220004F925F926F927F928F929F92AF92BF92C6
:10423000CF92DF92EF92FF920F931F93CF93DF9372
:10424000CDB7DEB7A1970FB6F894DEBF0FBECDBFD6
:104250007C015A016B010E94C9354C0180918C0888
:10426000811126C0C7010E94230719A29501A6014A
:104270008E010F5D1F4F8AE0482E512C612C712C4E
:10428000CA01B901A30192010E941E37605DD801E5
:104290006E938D01211531054105510589F7109760
:1042A00019F0CD010E944B1783E593E00E944B1754
:1042B0000E948F048091B3079091B407DC01ED91C7
:1042C000FC910190F081E02D61E7199510E000E08C
:1042D0000815190554F4F701E00FF11F849190E0DF
:1042E0000E94B4040F5F1F4FF3CF20E1FE0131960F
:1042F0004F01AF01B501C6010E94D235F401019012
:104300000020E9F731977F01E818F908B7016F5FDE
:104310007F4F90E080E00E9444398C010097C9F003
:10432000DC011C92B4010E94353AD12CC12CCE1470
:10433000DF0491F080E00115110521F0F801EC0D8A
:10434000FD1D808190E00E94B404BFEFCB1ADB0A10
:10435000EECFF12CE12CE9CF0E949B040115110551
:10436000C9F0C801A1960FB6F894DEBF0FBECDBF4D
:10437000DF91CF911F910F91FF90EF90DF90CF9041
:10438000BF90AF909F908F907F906F905F904F9075
:104390000C94BB38A1960FB6F894DEBF0FBECDBF0C
:1043A000DF91CF911F910F91FF90EF90DF90CF9011
:1043B000BF90AF909F908F907F906F905F904F9045
:1043C00008952F923F924F925F926F927F928F92B9
:1043D0009F92AF92BF92CF92DF92EF92FF920F9394
:1043E0001F93CF93DF93CDB7DEB7C754D1090FB674
:1043F000F894DEBF0FBECDBF4C016A01DC01DA9636
:104400008C9181111EC08FE395E00E941C18C95B3E
:10441000DF4F0FB6F894DEBF0FBECDBFDF91CF9157
:104420001F910F91FF90EF90DF90CF90BF90AF90D2
:104430009F908F907F906F905F904F903F902F90C4
:1044400008952223D9F06430D8F0F6014081F401B8
:10445000B12CA12C8281481709F427C13FEFA31A80
:10446000B30A379688E0A816B104A1F750E070E0CF
:1044700060E085EF94E00E941021C9CF663028F7F4
:1044800080E295E0C2CF87E08A9DF0018B9DF00D20
:104490001124E80DF91D9581911116C0F6019E01B8
:1044A0002F5F3F4FD90194E07D01E21AF30A329663
:1044B000961708F008C183818795882787954281E0
:1044C000840F8D939E5FF0CF6450770B869F7001B1
:1044D000879FF00C112463E0F594E7946A95E1F767
:1044E000B1E4EB16F1041CF08AEC94E08ECF1601D7
:1044F000E4E02E0E311C9E012F5F3F4F2901F90190
:1045000030E020E057E0652E712CCF018419950929
:104510008E159F050CF0D7C0C901B3010E94033866
:10452000D101A60FB71F11966C911197A301481BDB
:10453000590B01C0660F4A95EAF74C9150E002C052
:10454000559547958A95E2F7642B6193285F3F4F15
:10455000DCCF80936A030DC1F7013197E80FF91F93
:104560000DB407FEFDCF8EB5808380916B03882349
:1045700059F09FB7F89420916B0380916A03213022
:1045800009F05BC08DBB9FBFF6018281882361F07B
:1045900087E08A9DF0018B9DF00D1124E80DF91D37
:1045A00061E084810E9413080130110509F02FCFCA
:1045B0000E948F0488E60E946A0485E00E946A04D3
:1045C000D6018C910E946A04F60181810E946A04DE
:1045D0008E2D0E946A0427E02A9DC0012B9D900D1C
:1045E0001124880E991ED40115968C91FE013196E6
:1045F0005F018F01882309F44BC04F0110E000E0F8
:10460000512C48E0642E712CC4018A199B098E1527
:104610009F05B4F5D4018D914D01C82ED12C011503
:10462000110569F48F770E946A04CC0CCD2CCC1C48
:10463000DD085C2C01E010E0E7CF8FBFA5CFC601FD
:10464000002E01C0880F0A94EAF78F7785290E940F
:104650006A040630110541F4C601959587950E94BC
:104660006A0410E000E0D0CF0F5F1F4FC301801B32
:10467000910B02C0D594C7948A95E2F75C2CC4CF05
:10468000012B19F0852D0E946A040E949B04BFCE65
:10469000C8018A199B098E159F05BCF7F801819105
:1046A0008F0190E00E94B404F3CF222309F4EBCEF3
:1046B000D6011396EC90F12CA70170E060E0CE01DA
:1046C00001960E942E3A0230110569F580EF22967C
:1046D0008FAF229788E623968FAF239785E02496A5
:1046E0008FAF2497D6018C9125968FAF2597119681
:1046F0008C9126968FAF269727961FAE279787EF28
:1047000028968FAF28978091B3079091B407DC016A
:10471000ED91FC910280F381E02D47E050E0BE0175
:104720006F5B7F4F199587E08A9D30018B9D700CE0
:104730001124F401E60DF71D60E084810E94130846
:10474000B6E06B0E711CF401E60DF71D208191811E
:1047500080916B03882369F08FB7F89430916B03D5
:10476000313009F0F6CE3DB330936A033DB33DBB23
:104770008FBF2CBD9DBDE114F10409F4F6CE8981F3
:104780008EBDFE0131969701CF012150310909F408
:10479000E3CE51810DB407FEFDCF4EB55EBD419312
:1047A000F4CFCF93DF93CDB7DEB7DF91CF910895EC
:1047B000CF92DF92EF92FF920F931F93CF93DF93ED
:1047C000683649F4D901F42EEC01411106C088E89D
:1047D00093E00E941C1880E027C0A9014F5F5F4F43
:1047E000FA949C91983008F085C1E92FF0E0882771
:1047F000E350FC4D8F4F0C94173805247C2477250B
:10480000702568257A25642574258AAD81110CC030
:1048100051E0F51204C011968C91882371F085ED5A
:1048200093E00E941C1881E0DF91CF911F910F91BE
:10483000FF90EF90DF90CF900895809131088F37EF
:1048400081F16CE082E30E94770460E082E30E94E1
:104850008608809132088F3721F16CE083E30E9453
:10486000770461E083E30E948608809133088F37E4
:10487000C1F06CE084E30E94770461E084E30E946D
:104880008608FAAECFB7F89480916C03882361F064
:1048900080916C038F5F80936C03CFBF89EC93E0B2
:1048A000C0CF81EB93E0BDCFE4E1F8E08491EAE58D
:1048B000F8E09491E82FF0E0EE0FFF1FEA5FF84F69
:1048C000A591B491EC91E92321F461E085E30E9484
:1048D000130861E085E30E9486088CB580618CBD79
:1048E0008CB580648CBD61E084E30E94860861E041
:1048F00083E30E948608CCCF89E08F1518F087E803
:1049000094E08FCF11964C9111977E01BE012FEF4D
:104910003FEF90E080E0FB015281541301C09C0105
:104920000196695F7F4F88309105A9F72F3F3207C5
:10493000A1F490E080E0F7015085511101C09C0185
:104940000196F7E0EF0EF11C88309105A1F785E59F
:1049500094E02F3F320709F464CF18968C91189792
:10496000877F19F087E294E05CCF842F837041F059
:1049700050E070E060E089EF93E00E94102153CF97
:1049800087E0829FF001839FF00D1124EC0FFD1F43
:10499000428312968C911297182F117083FB8827EF
:1049A00080F9858313968C9113971496CC90149765
:1049B000D12CF12CE12C47E0CC0CDD1CEE1CFF1CB3
:1049C0004A95D1F715964C91159750E070E060E04C
:1049D0000EE0440F551F661F771F0A95D1F7C42AB2
:1049E000D52AE62AF72AC82A16964C91169750E03F
:1049F00070E060E085E1440F551F661F771F8A95C0
:104A0000D1F7C42AD52AE62AF72A17968C91179748
:104A1000482F50E070E060E09CE1440F551F661F96
:104A2000771F9A95D1F74C295D296E297F29199610
:104A30008C91199783831A968C91848381E0808767
:104A4000411551056105710521F440E45BE46CE416
:104A500070E0C12C92E1D92E9AE7E92EF12C90E07A
:104A60004C155D056E057F0540F4F694E794D794E8
:104A7000C7949F5F9630A1F797E081E0892760E5B2
:104A8000111101C060E777E0729FA001739F500D84
:104A90001124FA013696EC0FFD1F8695862B808334
:104AA000909591709183C40FD51F8B8180FD03C0B9
:104AB0008FEF8C83B8CE61E08C810E94770461E037
:104AC0008C810E948608AFCECE010E94DC1CABCE4A
:104AD00001E010E021E06F2DCE010E94E121A3CE84
:104AE00010E000E020E0F7CF02E010E0FBCF01E0B3
:104AF00010E0F8CF492F50E070E060E084EB94E0E4
:104B00003CCF85ED8093BC0080910105909102051A
:104B1000A0910305B09104050796A11DB11D23E0E6
:104B2000B695A795979587952A95D1F72091BC00C2
:104B300024FD03C01092FF04089540910105509197
:104B400002056091030570910405452B462B472B08
:104B500069F30097A105B10541F02AE22A95F1F722
:104B600000C00197A109B109E1CF809100050C9423
:104B7000F50D9F92AF92BF92CF92DF92EF92FF928C
:104B80000F931F93CF93DF93603541F4F901EC014C
:104B9000433030F486E895E00E941C1880E03DC068
:104BA0009280E180F0808E819F812A813B81CF2C91
:104BB000D12CAE2CB12C0097E1F12C153D0509F05C
:104BC00040C02C813D81A216B306B1F5911063C09F
:104BD0008E819F810E940B0B68E370E00E94EF378B
:104BE00084E6869FE001879FD00D11240E948F04E8
:104BF00080E50E946A048F2D0E946A048E2D0E9417
:104C00006A04892D0E946A04BE01DD0F880B990B8E
:104C10000E94DB040E949B0481E0DF91CF911F91F1
:104C20000F91FF90EF90DF90CF90BF90AF909F904B
:104C300008952C153D0529F42C813D812C153D0549
:104C400021F00E94BB381F821E828BE090E00E9400
:104C50001F388C01FC01F082E18281E0EF1080E0DE
:104C6000F801828361E08F2D0E94860860E0F801E0
:104C700081810E94860880E29EE4A0E0B0E0F80115
:104C800087839087A187B2871F830E83DB82CA82C6
:104C9000BD82AC829BCFF1E09F1280CF8E819F813D
:104CA0000E940B0B6EE870E099CF7F928F929F92DB
:104CB000AF92BF92CF92DF92EF92FF920F931F932A
:104CC000CF93DF93EC01D901603609F0D7C08C9106
:104CD000182F1F701C3008F0D1C0807F803309F47A
:104CE000DFC15901042F813338F48031A1F18032C2
:104CF00009F4B8C181E0C3C0803609F42FC28037FF
:104D000009F43BC28035B1F7612FCE010E94860FB6
:104D1000EC01009779F3183008F01AC2E881F981A4
:104D20000680F781E02D1995EA89FB8980818F7EC5
:104D30008083EA89FB898081877F8083EA89FB8978
:104D400080818F778083EA89FB8980818F7D808352
:104D50008A8D898FCFCFD9011296CC901297D12C02
:104D6000F12CE12C87E0CC0CDD1CEE1CFF1C8A959D
:104D7000D1F713968C9190E0B0E0A0E02EE0880F80
:104D8000991FAA1FBB1F2A95D1F78C299D29AE29EF
:104D9000BF29F50121816C017D01C22A812F90E09C
:104DA000FC01EE0FFF1FEC0FFD1FE15AFF4F1182B8
:104DB0001082FC01EE0FFF1FEE0FFF1FEC0FFD1F17
:104DC00013A214A215A216A28C0F9D1FFC01ED5A6E
:104DD000FF4F1082183058F5612FCE010E94860FC8
:104DE000EC01892B09F486CF11501330D0F4812FB8
:104DF00090E0FC01E25EFD4F1081855E9D4FDC017D
:104E00000C91112371F0002361F06AE0812F0E9460
:104E100077046AE0802F0E94770460E0812F0E946F
:104E20008608B701A601CE010E943C0563CF05307C
:104E300008F1F501048175801A3009F4E6C01B30D1
:104E400009F4E8C0193049F55E01F9E7AF0EB11C6D
:104E5000D5018D919C91892BA9F58FE190E00E945D
:104E60001F384C01472D602F0E948F30F501918231
:104E7000808228C088EE96E00E941C1880E0DF91B6
:104E8000CF911F910F91FF90EF90DF90CF90BF9047
:104E9000AF909F908F907F9008954E01F7E78F0E0F
:104EA000911CD4018D919C91892B61F48FE190E04C
:104EB0000E941F385C01472D602F0E948F30F40143
:104EC000B182A082612FCE010E94860FEC01892B56
:104ED00009F410CF6AE0802F0E9477046AE0872DE2
:104EE0000E9477041B8E1A8E198E188E1F8A1E8AB6
:104EF00060E079E08DE390E0A70196010E94FF3623
:104F0000B901C90103972430310510F481E090E024
:104F10009D8F8C8F8C8596EF980F943048F0EEEC37
:104F2000E80FE43028F0E2ECE80FE83008F069C060
:104F3000F901F695E795E431F10508F470C073972F
:104F4000FF8BEE8B6630710508F46CC0B9016550BB
:104F50007109798F688FB901660F771F260F371F88
:104F600036952795369527952D30310508F45DC087
:104F70002C5031093B8F2A8F943050F02EEC280FA3
:104F8000243030F022EC280FF0E0E0E0283010F47C
:104F9000E8E6F0E02081943028F032EC380F383029
:104FA00008F446C031E0232B943048F09EEC980F73
:104FB000943028F08E53F0E0E0E0883010F4E8E61A
:104FC000F0E020832C8536EF320F343098F18EECF0
:104FD000820F843078F182EC820F883070F58DE694
:104FE00090E09C8B8B8B343058F52650330B81E04E
:104FF00001C0880F2A95EAF78D8B8C8D9D8D0197C6
:10500000F1F7CE010E947A0D75CE5E01FBE7AF0E7F
:10501000B11C1ECF5E01FDE7AF0EB11C19CFE1E060
:10502000F0E08ECF61E070E094CF21E030E0A2CFDD
:1050300034E0B9CF8BE690E0D4CF90E080E0D1CFE0
:1050400088E02233C9F284E02333B1F282E02433D2
:1050500099F282EC820F883018F42E53330BC7CFAD
:1050600081E0CACF612FCE010E94860F7C01892B7F
:1050700009F440CEE50111E0101708F03BCE6A813B
:105080006795662767958981680FD701ED91FC9137
:105090000190F081E02DC70119951E5F2296ECCF9B
:1050A00011968C911197811126C03AA137300CF0DE
:1050B00021CE812F90E00596880F991FFE01E80F01
:1050C000F91F4330A8F013968C91139720E8829F24
:1050D000C001112412962C91822B9183808381E050
:1050E000830F8AA3C80FD11D87FDDA951A8302CEDC
:1050F00011821082F4CF813009F0FCCD9AA11916EB
:105100001CF08FEF8AA3F6CD80E0492F092E000C0A
:10511000550B282F30E04217530774F480E0E82F36
:10512000F0E04E175F078CF0883020F4EC0FFD1F85
:10513000238122838F5FF3CF2C0F3D1FD90112965D
:105140002C91121761F38F5FE4CF91509AA3D2CDC7
:105150000E94640DCE010E94BB38CCCD612FCE01E0
:105160000E94860F009709F4C5CDDC01ED91FC91FA
:105170000680F781E02D1995BDCD183008F4BACD21
:10518000612FCE010E94860F009709F03BCFB2CD70
:10519000CF92DF92EF92FF920F931F93CF93DF9303
:1051A0007A016901C62FD0E08E01000F111F080F90
:1051B000191FD8019E918E918D010097E9F483E02B
:1051C00090E00E941F38209134042033D0F531E064
:1051D000320F30933404FC01208330E0F901EE0FEC
:1051E000FF1FE20FF31FE75CFB4F28EB3BE032832E
:1051F0002183F80191838083DC01EC912E2F30E034
:10520000F901EE0FFF1FE20FF31FE75CFB4F208158
:1052100026FF02C02F7B2083F7FE06C020E639E080
:1052200040E252E0D7FC02C09601A701BE01DF9127
:10523000CF911F910F91FF90EF90DF90CF900C9442
:10524000A6092FEFDC012C93D4CFCF92DF92EF92FF
:10525000FF920F931F93CF936037B1F54530A0F1C4
:10526000F901C0814EEF4C0F403370F5EC2FF0E0A8
:10527000E150F84F40814F3739F1F9018C01E2805C
:1052800020E8E29EC0011124E180E80EF92EF11C15
:10529000C48020E8C29EC0011124C380C80ED92E4C
:1052A000D11C64E08C2F0E9477049601A7016C2F1B
:1052B000C8010E94C82881E0CF911F910F91FF90F3
:1052C000EF90DF90CF90089580E0F6CF2EEF260F7D
:1052D000203368F44430510541F42FEF3FEF4FEF96
:1052E0005FEF0E94C82881E008950E94A22080E01C
:1052F00008958F929F92AF92BF92CF92DF92EF92DA
:10530000FF920F931F93CF93DF93643741F4F9011A
:10531000EC01423030F48AE595E00E941C1880E0F0
:105320000CC0E08083E0E81215C08D819E810E9450
:10533000BB381E821D821A8281E0DF91CF911F91BE
:105340000F91FF90EF90DF90CF90BF90AF909F9024
:105350008F900895A1E0EA1631F0B2E0EB1205C09B
:1053600056E1E52E02C06BE0E62EF1800F2D10E035
:105370008A8181114FC01C830B8381E08A8383E182
:1053800090E00E941F386C01FC01F582E682F80172
:10539000EB5DF74FE491DC011796EC931797F8015A
:1053A000E152F84FE4911896EC9380E89EE3A0E078
:1053B000B0E0F60185879687A787B08BDE82CD8225
:1053C00062E08F2D0E9486080E943709605D774059
:1053D00081099109D60119966D937D938D939C93C4
:1053E0001C9787E352968C930D811E81C8010E9401
:1053F000B40B882351F0F80186818B3030F08D306A
:1054000098F08551823008F446C060E070E080EC8E
:105410009FE725C08B819C818017910729F38D819F
:105420009E810E94BB38ABCF618170E090E080E04C
:105430000E9406362DEC3CEC4CEC5DE30E944136BC
:105440004B015C01F801608170E090E080E00E9417
:1054500006369B01AC01C501B4010E9441370E9490
:10546000AD372AE0269F8001279F100D11240D8063
:10547000DE81C02DCE010E94B40B882339F08E81CD
:105480008C3009F484C0B8F48B3061F160E070E0D6
:1054900080EC9FE74DC06081718176276727762772
:1054A00090E080E00E9404362DEC3CEC4CEC5DE397
:1054B0000E944136D4CF8551823040F7EA806E2D6C
:1054C00070E0762F662766277F778B81682B90E0C8
:1054D00080E00E9404362DEC3CEC4CEC5DE30E9435
:1054E00041366FC06A8170E090E080E00E9404362F
:1054F0004B015C01CB81C7FF0AC0AC019B0160E09E
:1055000070E080E89FEB0E9440374B015C01CF7058
:105510006C2F70E090E080E00E9406362DEC3CECB1
:105520004CEC5DE30E944136A50194010E94413795
:1055300020E030E040E251E40E9441360E94AD3765
:105540004B010E948F0484E70E946A0480E00E945D
:105550006A048F2D0E946A04882D8F770E946A0446
:10556000C401880F892F881F990B8F770E946A04C6
:10557000802F8F770E946A04C801880F892F881FA7
:10558000990B8F770E946A040E949B04D5CEEA8013
:105590006E2D70E090E080E00E9404364B015C01CB
:1055A0006B816F7070E090E080E00E9406362DEC19
:1055B0003CEC4CEC5DE30E944136A50194010E9455
:1055C0004137E7FEB5CF9058B3CF1F920F920FB679
:1055D0000F9211240BB60F922F933F934F935F932B
:1055E0006F937F938F939F93AF93BF93EF93FF93AB
:1055F0008091D5049091D604A091D704B091D8049D
:10560000892B8A2B8B2BE1F19091D404E091D20469
:10561000F091D3048081892780838091D504909173
:10562000D604A091D704B091D804181619061A060A
:105630001B069CF48091D5049091D604A091D704C8
:10564000B091D8040197A109B1098093D504909332
:10565000D604A093D704B093D804FF91EF91BF91E3
:10566000AF919F918F917F916F915F914F913F91FA
:105670002F910F900BBE0F900FBE0F901F9018959B
:10568000809110020E944108E8CF1F920F920FB63E
:105690000F9211240BB60F922F933F934F935F936A
:1056A0006F937F938F939F93AF93BF93EF93FF93EA
:1056B00089E295E00E94B406FF91EF91BF91AF910E
:1056C0009F918F917F916F915F914F913F912F911A
:1056D0000F900BBE0F900FBE0F901F9018951F924A
:1056E0000F920FB60F9211240BB60F922F933F9388
:1056F0004F935F936F937F938F939F93AF93BF93DA
:10570000EF93FF9389E295E00E943606FF91EF91B7
:10571000BF91AF919F918F917F916F915F914F91C9
:105720003F912F910F900BBE0F900FBE0F901F90C7
:1057300018951F920F920FB60F9211240BB60F926D
:105740002F933F934F935F936F937F938F939F9389
:10575000AF93BF93EF93FF9386EC95E00E94B4065E
:10576000FF91EF91BF91AF919F918F917F916F9139
:105770005F914F913F912F910F900BBE0F900FBEF5
:105780000F901F9018951F920F920FB60F92112431
:105790000BB60F922F933F934F935F936F937F932B
:1057A0008F939F93AF93BF93EF93FF9386EC95E016
:1057B0000E943606FF91EF91BF91AF919F918F911B
:1057C0007F916F915F914F913F912F910F900BBE01
:1057D0000F900FBE0F901F9018951F920F920FB64B
:1057E0000F9211240BB60F922F933F934F935F9319
:1057F0006F937F938F939F93AF93BF93EF93FF9399
:1058000083E696E00E94B406FF91EF91BF91AF91BD
:105810009F918F917F916F915F914F913F912F91C8
:105820000F900BBE0F900FBE0F901F9018951F92F8
:105830000F920FB60F9211240BB60F922F933F9336
:105840004F935F936F937F938F939F93AF93BF9388
:10585000EF93FF9383E696E00E943606FF91EF9167
:10586000BF91AF919F918F917F916F915F914F9178
:105870003F912F910F900BBE0F900FBE0F901F9076
:1058800018951F920F920FB60F9211240BB60F921C
:105890002F933F934F935F936F937F938F939F9338
:1058A000AF93BF93EF93FF9380E097E00E94B4061D
:1058B000FF91EF91BF91AF919F918F917F916F91E8
:1058C0005F914F913F912F910F900BBE0F900FBEA4
:1058D0000F901F9018951F920F920FB60F921124E0
:1058E0000BB60F922F933F934F935F936F937F93DA
:1058F0008F939F93AF93BF93EF93FF9380E097E0D5
:105900000E943606FF91EF91BF91AF919F918F91C9
:105910007F916F915F914F913F912F910F900BBEAF
:105920000F900FBE0F901F9018951F920F920FB6F9
:105930000F9211242F933F938F939F93AF93BF9315
:105940008091CA049091CB04A091CC04B091CD0475
:105950003091C90423E0230F2D3758F50196A11D7E
:10596000B11D2093C9048093CA049093CB04A093E3
:10597000CC04B093CD048091CE049091CF04A0913B
:10598000D004B091D1040196A11DB11D8093CE0425
:105990009093CF04A093D004B093D104BF91AF9162
:1059A0009F918F913F912F910F900FBE0F901F905D
:1059B000189526E8230F0296A11DB11DD2CF1F9284
:1059C0000F920FB60F9211240BB60F922F933F93A5
:1059D0004F935F936F937F938F939F93AF93BF93F7
:1059E000EF93FF93E0910E02F0910F021995FF9152
:1059F000EF91BF91AF919F918F917F916F915F9147
:105A00004F913F912F910F900BBE0F900FBE0F90B3
:105A10001F9018951F920F920FB60F9211240BB67C
:105A20000F922F933F934F935F936F937F938F9337
:105A30009F93AF93BF93EF93FF93E0910C02F0918C
:105A40000D021995FF91EF91BF91AF919F918F91A9
:105A50007F916F915F914F913F912F910F900BBE6E
:105A60000F900FBE0F901F9018951F920F920FB6B8
:105A70000F9211240BB60F922F933F934F935F9386
:105A80006F937F938F939F93AF93BF93EF93FF9306
:105A9000E0910202F09103021995FF91EF91BF91FD
:105AA000AF919F918F917F916F915F914F913F91B6
:105AB0002F910F900BBE0F900FBE0F901F90189557
:105AC0001F920F920FB60F9211240BB60F922F93C5
:105AD0003F934F935F936F937F938F939F93AF9376
